:020000040800F2
:1000000000000220D1570008E1AE0008E9AE000868
:100010000DAF000815AF00081DAF0008000000007C
:1000200000000000000000000000000075A60008AD
:100030003D5800080000000089A60008C1AA000879
:100040003D5800083D5800083D5800083D5800083C
:100050003D5800083D580008F16300081D64000881
:100060004964000875640008A16400083D58000850
:10007000657B00083D580008517A00083D5800088B
:10008000097B0008F57900083D5800083D58000834
:100090003D5800083D5800083D580008CD64000850
:1000A0003D5800083D580008ADAC00083D58000818
:1000B0003D5800083D5800083D5800083D580008CC
:1000C0003D5800083D5800083D5800083D580008BC
:1000D0003D5800080979000821790008397900089D
:1000E000456500083D5800083D5800083D58000887
:1000F0003D5800083D5800083D5800083D5800088C
:100100003D5800083D580008D5A700083D58000894
:1001100051790008697900083D5800083D580008E9
:100120003D5800083D5800083D5800083D5800085B
:100130003D5800083D5800083D5800083D5800084B
:100140003D5800083D5800083D5800083D5800083B
:10015000AD7A00083D5800089979000881790008B7
:100160003D5800083D5800083D5800083D5800081B
:100170003D5800083D5800083D5800083D5800080B
:0C0180003D5800083D5800080000000831
:1001900081F0004102E000BF83F0004330B54FEA38
:1001A00041044FEA430594EA050F08BF90EA020FA5
:1001B0001FBF54EA000C55EA020C7FEA645C7FEA38
:1001C000655C00F0E2804FEA5454D4EB5555B8BF5B
:1001D0006D420CDD2C4480EA020281EA030382EACC
:1001E000000083EA010180EA020281EA0303362D5E
:1001F00088BF30BD11F0004F4FEA01314FF4801C31
:100200004CEA113102D0404261EB410113F0004F42
:100210004FEA03334CEA133302D0524263EB4303F9
:1002200094EA050F00F0A780A4F10104D5F1200E97
:100230000DDB02FA0EFC22FA05F2801841F10001F2
:1002400003FA0EF2801843FA05F359410EE0A5F1C6
:1002500020050EF1200E012A03FA0EFC28BF4CF0F7
:10026000020C43FA05F3C01851EBE37101F00045AD
:1002700007D54FF0000EDCF1000C7EEB00006EEBBA
:100280000101B1F5801F1BD3B1F5001F0CD3490844
:100290005FEA30004FEA3C0C04F101044FEA44529B
:1002A00012F5800F80F09A80BCF1004F08BF5FEA22
:1002B000500C50F1000041EB045141EA050130BD02
:1002C0005FEA4C0C404141EB010111F4801FA4F1A5
:1002D0000104E9D191F0000F04BF01460020B1FAFA
:1002E00081F308BF2033A3F10B03B3F120020CDA32
:1002F0000C3208DD02F1140CC2F10C0201FA0CF010
:1003000021FA02F10CE002F11402D8BFC2F1200C74
:1003100001FA02F120FA0CFCDCBF41EA0C0190402A
:10032000E41AA2BF01EB0451294330BD6FEA040473
:100330001F3C1CDA0C340EDC04F11404C4F120025E
:1003400020FA04F001FA02F340EA030021FA04F370
:1003500045EA030130BDC4F10C04C4F1200220FAC7
:1003600002F001FA04F340EA0300294630BD21FA05
:1003700004F0294630BD94F0000F83F4801306BFCB
:1003800081F480110134013D4EE77FEA645C18BFBF
:100390007FEA655C29D094EA050F08BF90EA020F56
:1003A00005D054EA000C04BF1946104630BD91EA4E
:1003B000030F1EBF0021002030BD5FEA545C05D151
:1003C0004000494128BF41F0004130BD14F5800490
:1003D0003CBF01F5801130BD01F0004545F0FE4104
:1003E00041F470014FF0000030BD7FEA645C1ABF39
:1003F000194610467FEA655C1CBF0B46024650EA70
:10040000013406BF52EA033591EA030F41F400219B
:1004100030BD00BF90F0000F04BF0021704730B521
:100420004FF4806404F132044FF000054FF00001F6
:1004300050E700BF90F0000F04BF0021704730B5B7
:100440004FF4806404F1320410F0004548BF40428C
:100450004FF000013EE700BF42004FEAE2014FEAE1
:1004600031014FEA02701FBF12F07F4393F07F4FBC
:1004700081F06051704792F0000F14BF93F07F4FEE
:10048000704730B54FF4607401F0004521F0004131
:1004900020E700BF50EA010208BF704730B54FF0B7
:1004A00000050AE050EA010208BF704730B511F0BC
:1004B000004502D5404261EB41014FF4806404F1F4
:1004C00032045FEA915C3FF4DCAE4FF003025FEA76
:1004D000DC0C18BF03325FEADC0C18BF033202EBFE
:1004E000DC02C2F1200300FA03FC20FA02F001FA58
:1004F00003FE40EA0E0021FA02F11444C1E600BFF7
:1005000070B54FF0FF0C4CF4E06C1CEA11541DBFA9
:100510001CEA135594EA0C0F95EA0C0F00F0DEF874
:100520002C4481EA030621EA4C5123EA4C5350EA59
:10053000013518BF52EA033541F4801143F48013AA
:1005400038D0A0FB02CE4FF00005E1FB02E506F03B
:100550000042E0FB03E54FF00006E1FB03569CF090
:10056000000F18BF4EF0010EA4F1FF04B6F5007F96
:1005700064F5407404D25FEA4E0E6D4146EB060608
:1005800042EAC62141EA55514FEAC52040EA5E5091
:100590004FEACE2EB4F1FD0C88BFBCF5E06F1ED83B
:1005A000BEF1004F08BF5FEA500E50F1000041EB72
:1005B000045170BD06F0004646EA010140EA02001F
:1005C00081EA0301B4EB5C04C2BFD4EB0C0541EA41
:1005D000045170BD41F480114FF0000E013C00F356
:1005E000AB8014F1360FDEBF002001F0004170BD7A
:1005F000C4F10004203C35DA0C341BDC04F1140493
:10060000C4F1200500FA05F320FA04F001FA05F21E
:1006100040EA020001F0004221F0004110EBD370EB
:1006200021FA04F642EB06015EEA430E08BF20EA17
:10063000D37070BDC4F10C04C4F1200500FA04F3BA
:1006400020FA05F001FA04F240EA020001F000414C
:1006500010EBD37041F100015EEA430E08BF20EABF
:10066000D37070BDC4F1200500FA05F24EEA020E07
:1006700020FA04F301FA05F243EA020321FA04F036
:1006800001F0004121FA04F220EA020000EBD370ED
:100690005EEA430E08BF20EAD37070BD94F0000FED
:1006A0000FD101F00046400041EB010111F4801F21
:1006B00008BF013CF7D041EA060195F0000F18BFD2
:1006C000704703F00046520043EB030313F4801F0E
:1006D00008BF013DF7D043EA0603704794EA0C0FC8
:1006E0000CEA135518BF95EA0C0F0CD050EA4106DE
:1006F00018BF52EA4306D1D181EA030101F000415B
:100700004FF0000070BD50EA410606BF1046194682
:1007100052EA430619D094EA0C0F02D150EA01368E
:1007200013D195EA0C0F05D152EA03361CBF1046CF
:1007300019460AD181EA030101F0004141F0FE416E
:1007400041F470014FF0000070BD41F0FE4141F4F2
:10075000780170BD70B54FF0FF0C4CF4E06C1CEAF2
:1007600011541DBF1CEA135594EA0C0F95EA0C0FA7
:1007700000F0A7F8A4EB050481EA030E52EA033562
:100780004FEA013100F088804FEA03334FF0805583
:1007900045EA131343EA12634FEA022245EA1115B0
:1007A00045EA10654FEA00260EF000419D4208BF61
:1007B000964244F1FD0404F5407402D25B084FEA0E
:1007C0003202B61A65EB03055B084FEA32024FF4BA
:1007D00080104FF4002CB6EB020E75EB030E22BF17
:1007E000B61A754640EA0C005B084FEA3202B6EBD7
:1007F000020E75EB030E22BFB61A754640EA5C0086
:100800005B084FEA3202B6EB020E75EB030E22BF15
:10081000B61A754640EA9C005B084FEA3202B6EB16
:10082000020E75EB030E22BFB61A754640EADC00D5
:1008300055EA060E18D04FEA051545EA16754FEA37
:1008400006164FEAC30343EA52734FEAC2025FEA55
:100850001C1CC0D111F4801F0BD141EA00014FF0E4
:1008600000004FF0004CB6E711F4801F04BF0143B5
:100870000020B4F1FD0C88BFBCF5E06F3FF6AFAED1
:10088000B5EB030C04BFB6EB020C5FEA500C50F161
:10089000000041EB045170BD0EF0004E4EEA1131E4
:1008A00014EB5C04C2BFD4EB0C0541EA045170BDEB
:1008B00041F480114FF0000E013C90E645EA060E2F
:1008C0008DE60CEA135594EA0C0F08BF95EA0C0F5D
:1008D0003FF43BAF94EA0C0F0AD150EA01347FF4A5
:1008E00034AF95EA0C0F7FF425AF104619462CE77C
:1008F00095EA0C0F06D152EA03353FF4FDAE1046DF
:10090000194622E750EA410618BF52EA43067FF42F
:10091000C5AE50EA41047FF40DAF52EA43057FF4BF
:10092000EBAE12E74FF0FF3C06E000BF4FF0010CCA
:1009300002E000BF4FF0010C4DF804CD4FEA410C2E
:100940007FEA6C5C4FEA430C18BF7FEA6C5C1BD0FB
:1009500001B050EA410C0CBF52EA430C91EA030F7C
:1009600002BF90EA020F0020704710F1000F91EAD9
:10097000030F58BF994208BF90422CBFD8176FEAA7
:10098000E37040F0010070474FEA410C7FEA6C5C75
:1009900002D150EA013C07D14FEA430C7FEA6C5C7C
:1009A000D6D152EA033CD3D05DF8040B704700BFA8
:1009B0008446104662468C461946634600E000BFF6
:1009C00001B5FFF7B7FF002848BF10F1000F01BDC8
:1009D0004DF808EDFFF7F4FF0CBF012000205DF893
:1009E00008FB00BF4DF808EDFFF7EAFF34BF012018
:1009F00000205DF808FB00BF4DF808EDFFF7E0FFB1
:100A000094BF012000205DF808FB00BF4DF808ED01
:100A1000FFF7CEFF94BF012000205DF808FB00BF68
:100A20004DF808EDFFF7C4FF34BF012000205DF84A
:100A300008FB00BF4FEA410212F5001215D211D592
:100A40006FF47873B3EB625212D94FEAC12343F0CB
:100A5000004343EA505311F0004F23FA02F018BF4D
:100A6000404270474FF00000704750EA013005D116
:100A700011F0004008BF6FF0004070474FF00000D9
:100A8000704700BF4A0011D212F5001211D20DD5E5
:100A90006FF47873B3EB62520ED44FEAC12343F084
:100AA000004343EA505323FA02F070474FF000002E
:100AB000704750EA013002D14FF0FF3070474FF0DD
:100AC000000070474FEA4102B2F1E04324BFB3F5A2
:100AD000001CDCF1FE5C0DD901F0004C4FEAC002B5
:100AE0004CEA5070B2F1004F40EB830008BF20F099
:100AF0000100704711F0804F21D113F13872BCBF53
:100B000001F00040704741F480114FEA5252C2F1A7
:100B10001802C2F1200C10FA0CF320FA02F018BFF0
:100B200040F001004FEAC1234FEAD32303FA0CFC43
:100B300040EA0C0023FA02F34FEA4303CCE77FEAD2
:100B4000625307D150EA01331EBF4FF0FE4040F41C
:100B50004000704701F0004040F0FE4040F40000CB
:100B6000704700BF73B96AB9002908BF0028BCBF2D
:100B700000204FF00041C4BF6FF000414FF0FF3044
:100B800000F08AB882B0EC462DE9005000F058F829
:100B9000DDF804E002B00CBC704700BF4BB942B9AD
:100BA000002908BF002802D04FF0FF31084600F0AE
:100BB00073B882B0EC462DE9005000F057F8DDF82C
:100BC00004E002B00CBC704738B500220023054693
:100BD0000C46FFF707FF28B928462146BDE83840F4
:100BE00000F00CB8284604F1004100F007F842423A
:100BF00061EB41031046194638BD00BF002370B5B4
:100C00000022C3F6F05304460D46FFF779FCFFF7C8
:100C100039FF0646FFF7FEFB00230022C4F2F01363
:100C2000FFF76EFC02460B4620462946FFF7B4FA52
:100C3000FFF728FF002202431046314670BD00BF77
:100C4000F8B5164604460D461F4600F027F806FB89
:100C500001F300FB0737A6FB0023FB18A21A65EB84
:100C60000303069CC4E90023F8BD00BFF8B516468F
:100C700004460D461F4600F06FF900FB07F7A0FB86
:100C8000062306FB0177FB18A21A65EB0303069CFB
:100C9000C4E90023F8BD00BF704700BF00292DE95B
:100CA000F00F1D46C0F29D800024002DC0F29480FC
:100CB00080460F4694461E46E3BB8A4255D9B2FA97
:100CC00082F747B1C7F1200520FA05F601FA07F1CE
:100CD000BA403143B840170CB1FBF7F6030C1FFACA
:100CE00082FC07FB16110CFB06F543EA01439D420B
:100CF00008D9711E9B1880F013819D4240F210812B
:100D0000023E9B18591BB1FBF7F507FB151380B288
:100D10000CFB05FC40EA03418C4507D96B1E8A1881
:100D200080F00081944540F2FD80023D45EA064195
:100D3000002503E08B420CD9002529460A462B46A4
:100D400014B1524263EB430310461946BDE8F00F5D
:100D50007047B3FA83F5002D40F087808B4201D3B2
:100D60008242EAD800250121E8E712B90126B6FB44
:100D7000F2F2B2FA82F6002E39D18E1A130C1FFA53
:100D800082FC0125B6FBF3F703FB17614FEA10491C
:100D90000CFB07F849EA0146B04506D9791EB6189A
:100DA00002D2B04500F2D3800F46C8EB0606B6FB70
:100DB000F3F103FB116380B20CFB01FC40EA034337
:100DC0009C4506D94E1E9A1802D2944500F2C28064
:100DD000314641EA0741B1E7E443524263EB430342
:100DE00066E7404261EB41014FF0FF345DE7B240FE
:100DF000C6F1200921FA09F720FA09F5130C01FAC6
:100E000006F1B7FBF3F845EA01091FFA82FC03FB80
:100E100018774FEA19410CFB08F541EA0747B04043
:100E2000BD420AD9BF1808F1FF3680F08E80BD425E
:100E300040F28B80A8F10208BF18791BB1FBF3F5D3
:100E400003FB15171FFA89F90CFB05F649EA074160
:100E50008E4206D96F1E891871D28E426FD9023D1B
:100E600089188E1B45EA08458CE7C5F1200122FA56
:100E700001F306FA05F61E4327FA01F24FEA164976
:100E800007FA05F720FA01F1B2FBF9F80F433B0C22
:100E90001FFA86FA09FB18220AFB08FB43EA024202
:100EA00093450CFA05FC08D9921908F1FF314AD292
:100EB000934548D9A8F102089219CBEB0203B3FB82
:100EC000F9F109FB1132BFB20AFB01FA47EA02430A
:100ED0009A4506D94A1E9B1933D29A4531D902390F
:100EE0009B1941EA08410F0C1FFA8CF808FB07F622
:100EF0008AB24FEA1C4C08FB02F80CFB026202EBC0
:100F000018420CFB07FC964288BF0CF5803CCAEBEC
:100F100003030CEB124C63450ED305D000250DE7FF
:100F20000E46EFE61D4601E71FFA88F800FA05F0C5
:100F300008EB0245A842F1D201390025FEE63D4604
:100F40008FE71146CDE78846B7E7B04675E7023F21
:100F5000B6182AE702393CE72DE9F00714460546A2
:100F60000E46002B3DD18A4249D9B2FA82F747B1E9
:100F7000C7F1200120FA01F206FA07F6BC40164339
:100F8000BD40220CB6FBF2F02F0CA1B202FB1066A2
:100F900001FB00F347EA0646B34208D9471E36195B
:100FA00080F0F880B34240F2F58002383619F61A24
:100FB000B6FBF2F302FB1362ADB201FB03F145EAAB
:100FC0000242914207D95E1E121980F0E5809142DB
:100FD00040F2E280023B43EA00400021BDE8F00716
:100FE00070478B4243D8B3FA83F4002C42D18B4232
:100FF00002D3824200F2DF8000210120EEE712B925
:101000000127B7FBF2F4B4FA84F2002A40F088809A
:101010000A1B230CA7B20121B2FBF3F603FB162235
:101020004FEA154C07FB06F04CEA0242904207D902
:10103000121906F1FF3C02D2904200F2CE806646C1
:10104000121AB2FBF3F003FB1023ADB207FB00F75B
:1010500045EA03439F4207D9421E1B1980F09E8038
:101060009F4240F29B80023840EA0640B6E70021EA
:101070000846B3E7C4F1200622FA06F503FA04F3A2
:101080002B434FEA134C21FA06F501FA04F120FA3A
:1010900006F6B5FBFCF746EA010A1FFA83F80CFBDB
:1010A00017554FEA1A4108FB07F941EA0545A945DA
:1010B00002FA04F203D97E1EED187FD33746C9EB3E
:1010C0000501B1FBFCF60CFB16151FFA8AFA08FBAA
:1010D00006F84AEA0541884503D9751EC91873D335
:1010E0002E4646EA0746370C1FFA82FC0CFB07F532
:1010F000120CB3B20CFB03FC02FB035303EB1C43C7
:1011000002FB07F29D4288BF02F58032C8EB010165
:1011100002EB134291424BD342D0304600215DE7AF
:101120009440C2F1200521FA05F6230C20FA05F7B8
:1011300001FA02F1B6FBF3FC39430D0CA7B203FB35
:101140001C6645EA064607FB0CF8B04500FA02F5B6
:1011500008D936190CF1FF303DD2B0453BD9ACF17E
:10116000020C3619C8EB0602B2FBF3F003FB1026A3
:101170008AB242EA064207FB00F1914206D9461EB6
:10118000121926D2914224D902381219521A40EA71
:101190000C4141E738460AE733461CE7104663E74F
:1011A0001FFA8CFC00FA04F00CEB03439842B4D213
:1011B000701E002112E7214620460FE7A9457FF661
:1011C0007DAF023FED187AE7884589D9023EC918FC
:1011D00087E73046DAE78446C4E7023E12192FE774
:1011E00080B483B000AF786007F10C07BD4680BCC7
:1011F000704700BF80B582B000AF78607B680E4A50
:101200001A6045F62430C0F6010003F02DF97B6822
:1012100003F10403184603F0F5FA4FF0000303F05E
:101220000103002B02D0786803F022FB7B6818468C
:1012300007F10807BD4680BD9068010880B582B0FF
:1012400000AF78607868FFF7D5FF786803F010FB8F
:101250007B68184607F10807BD4680BD80B582B09F
:1012600000AF78607B680E4A1A6045F63430C0F6ED
:10127000010003F0F9F87B6803F10403184603F05A
:10128000C1FA4FF0000303F00103002B02D078688D
:1012900003F0EEFA7B68184607F10807BD4680BDEB
:1012A000F868010880B582B000AF78607868FFF711
:1012B000D5FF786803F0DCFA7B68184607F1080769
:1012C000BD4680BD80B582B000AF78607B68084ABB
:1012D0001A604FF0000303F00103002B02D078687E
:1012E00003F0C6FA7B68184607F10807BD4680BDC3
:1012F0007868010880B582B000AF78607868FFF741
:10130000E1FF786803F0B4FA7B68184607F1080734
:10131000BD4680BD80B584B000AFF860B9607A602A
:101320003B6045F64830C0F6010003F09DF84FF0F1
:101330000003184607F11007BD4680BDB0B582B066
:1013400000AF7860396078684FF0010104F0AEFEBC
:1013500003F088FB04460D4639680A464FF0000347
:1013600044F24021C0F20F0101FB03F04FF00001F5
:1013700001FB02F1401844F24021C0F20F01A2FB30
:101380000123C1180B46121943EB050310461946F9
:101390004FF000020AF04CFC78684FF0000104F0B6
:1013A00085FE07F10807BD46B0BD00BF80B584B01B
:1013B00000AF78603960386803F034FA0346FB60A8
:1013C000FB6803F101034FF0010019460DF02CFEFC
:1013D0000346BB60B86845F6D031C0F601013A68F3
:1013E0000EF0BEF97B681B6803F140031B68786848
:1013F000B968FA689847B8680DF062FE07F11007FF
:10140000BD4680BD80B586B000AF78603960386871
:101410004FF0000104F04AFE45F6EC33C0F601033C
:1014200007F10C021B88138045F6F033C0F6010368
:1014300007F108021B88138007F10C03786819462E
:101440004FF0020205F01CFE786107F1080378688E
:1014500019464FF0020205F013FE38617B69002B3C
:1014600002DB3B69002B09DA40F69410C2F200005F
:1014700045F6D431C0F60101FFF798FF38684FF008
:10148000010104F013FE07F11807BD4680BD00BF3F
:1014900080B588B000AF7860396038684FF00001DF
:1014A00004F004FE45F6F433C0F6010307F1100220
:1014B0001B8813804FF021033B734FF000037B73B5
:1014C0004FF022033B724FF000037B7207F11003D1
:1014D000786819464FF0020205F0D2FDF86107F175
:1014E0000C03786819464FF0020205F0C9FDB86197
:1014F00007F10803786819464FF0020205F0C0FDB5
:101500007861FB69002B05DBBB69002B02DB7B6983
:10151000002B09DA40F69410C2F2000045F6D431EF
:10152000C0F60101FFF742FF38684FF0010104F0F7
:10153000BDFD07F12007BD4680BD00BF80B58AB064
:1015400002AFF860B9601346FB71B8684FF0000154
:1015500004F0ACFDFB7903F03F03DBB263F07F03E3
:10156000DBB2DBB23B7407F1100207F114034FF05A
:101570000301009140F6B010C2F2000011464FF096
:10158000010205F023FEF861FB69002B09DA40F641
:101590009410C2F2000045F6F831C0F60101FFF7E1
:1015A00005FFBB7D4FEA03239AB27B7D13437B8308
:1015B000FB687A8B1A80B8684FF0010104F076FD61
:1015C00007F12007BD4680BD80B58CB002AFF86042
:1015D000B9601346FB71B8684FF0000104F066FD76
:1015E000FB7903F03F03DBB263F07F03DBB2DBB2D6
:1015F0003B7407F1100207F114034FF0070100914B
:1016000040F6B010C2F2000011464FF0010205F0A2
:10161000DDFD78627B6A002B09DA40F69410C2F295
:10162000000045F61041C0F60101FFF7BFFEBB7D8B
:101630004FEA03239AB27B7D13437B843B7E4FEAC0
:1016400003239AB2FB7D13433B84BB7E4FEA032303
:101650009AB27B7E1343FB83FB687A8C1A80FB680B
:101660003A8C5A80FB68FA8B9A80B8684FF0010177
:1016700004F01CFD07F12807BD4680BDB0B58EB053
:1016800000AFF860B960FA71BB804FF000037B6374
:101690004FE007F11002FB791046B9681A46FFF7D0
:1016A00093FFD7E906013C8A22B24FEAE27312188F
:1016B00043EB0103C7E90623D7E908017C8A22B27C
:1016C0004FEAE273121843EB0103C7E90823D7E995
:1016D0000A01BC8A22B24FEAE273121843EB0103FB
:1016E000C7E90A2303F0BEF904460D46BA884FF055
:1016F000000344F24021C0F20F0101FB03F04FF060
:10170000000101FB02F1401844F24021C0F20F0138
:10171000A2FB0123C1180B46121943EB0503104627
:1017200019464FF000020AF083FA7B6B03F10103C4
:101730007B637A6BBB6C9A422CBF00230123DBB224
:10174000002BA6D1D7E90623F968C1E90023D7E920
:101750000823F968C1E90223D7E90A23F968C1E936
:10176000042307F13807BD46B0BD00BF00000000EC
:1017700080B596B002AF78609B484FF0FA01FFF752
:10178000DDFD4FF000024FF00003C7E90E234FF0DC
:1017900000024FF00003C7E910234FF000024FF0A2
:1017A0000003C7E912234FF000024FF00003C7E91E
:1017B00008234FF000024FF00003C7E90A234FF05F
:1017C00000024FF00003C7E90C234FF000024FF076
:1017D0000003C7E902234FF000024FF00003C7E9FE
:1017E00004234FF000024FF00003C7E9062307F17E
:1017F00038034FF064020092184640F6CC11C2F252
:1018000000014FF028024FF03203FFF737FF764810
:101810004FF4FA71FFF792FD03F024F96EA3D3E9B8
:101820000023121843EB0103104619464FF0000243
:101830000AF0FEF96C484FF4FA71FFF77FFD07F1EB
:1018400020034FF064020092184640F6CC11C2F219
:1018500000014FF028024FF03203FFF70FFF6248FC
:101860004FF4FA71FFF76AFD03F0FCF85AA3D3E9CD
:101870000023121843EB0103104619464FF00002F3
:101880000AF0D6F958484FF4FA71FFF757FD07F1FF
:1018900008034FF064020092184640F6CC11C2F2E1
:1018A00000014FF028024FF03203FFF7E7FE4E48E9
:1018B0004FF4FA71FFF742FD03F0D4F848A3D3E9DF
:1018C0000023121843EB0103104619464FF00002A3
:1018D0000AF0AEF9D7E90E01D7E90223121843EB5B
:1018E000010310461946FEF7DDFD02460B46104681
:1018F00019464FF000024FF00003C4F26903FEF7EF
:1019000029FF02460B4610461946FFF793F8034697
:101910009AB27B681A80D7E91001D7E90A23121816
:1019200043EB010310461946FEF7BCFD02460B4689
:10193000104619464FF000024FF00003C4F269034D
:10194000FEF708FF02460B4610461946FFF772F8ED
:1019500003469AB27B685A80D7E90601D7E90C237F
:10196000121843EB010310461946FEF79BFD024691
:101970000B46104619464FF000024FF00003C4F228
:101980006903FEF7E7FE02460B4610461946FFF7CD
:1019900051F803469AB27B689A8013484FF4FA7163
:1019A000FFF7CCFC03F05EF80DA3D3E90023121877
:1019B00043EB0103104619464FF000020AF038F9D4
:1019C00009484FF4FA71FFF7B9FC07F15007BD461B
:1019D00080BD00BFAFF3008000CA9A3B000000004A
:1019E0000065CD1D0000000078090020AFF30080E5
:1019F00080B596B002AF786093484FF4FA71FFF764
:101A00009DFC4FF000024FF00003C7E90E234FF09A
:101A100000024FF00003C7E910234FF000024FF01F
:101A20000003C7E912234FF000024FF00003C7E99B
:101A300008234FF000024FF00003C7E90A234FF0DC
:101A400000024FF00003C7E90C234FF000024FF0F3
:101A50000003C7E902234FF000024FF00003C7E97B
:101A600004234FF000024FF00003C7E9062307F1FB
:101A700038034FF064020092184640F6CC11C2F2CF
:101A800000014FF018024FF01403FFF7F7FD6E4806
:101A90004FF4FA71FFF752FC02F0E4FF66A3D3E9BA
:101AA0000023121843EB0103104619464FF00002C1
:101AB0000AF0BEF864484FF4FA71FFF73FFC07F1F3
:101AC00020034FF064020092184640F6CC11C2F297
:101AD00000014FF018024FF01403FFF7CFFD5A48F2
:101AE0004FF4FA71FFF72AFC02F0BCFF52A3D3E9CE
:101AF0000023121843EB0103104619464FF0000271
:101B00000AF096F850484FF4FA71FFF717FC07F106
:101B100008034FF064020092184640F6CC11C2F25E
:101B200000014FF018024FF01403FFF7A7FD4648DD
:101B30004FF4FA71FFF702FC02F094FF40A3D3E9DF
:101B40000023121843EB0103104619464FF0000220
:101B50000AF06EF8D7E9082310461946FEF7A2FCF2
:101B600002460B46104619464FF000024FF00003A4
:101B7000C4F25903FEF7EEFD02460B461046194625
:101B8000FEF758FF03469AB27B681A80D7E9042310
:101B900010461946FEF786FC02460B4610461946CB
:101BA0004FF000024FF00003C4F25903FEF7D2FDDC
:101BB00002460B4610461946FEF73CFF03469AB212
:101BC0007B685A80D7E9122310461946FEF76AFC53
:101BD00002460B46104619464FF000024FF0000334
:101BE000C4F25903FEF7B6FD02460B4610461946ED
:101BF000FEF720FF03469AB27B689A8012484FF4A2
:101C0000FA71FFF79BFB02F02DFF0DA3D3E9002330
:101C1000121843EB0103104619464FF000020AF078
:101C200007F809484FF4FA71FFF788FB07F15007EE
:101C3000BD4680BDAFF3008000CA9A3B00000000A3
:101C40000065CD1D0000000078090020AFF3008082
:101C5000B0B588B000AF786099484FF4FA71FFF7DB
:101C60006DFB4FF00003BB824FF00003FB8202F0DC
:101C7000F9FEC7E9060107F11203184640F6E8111C
:101C8000C2F200014FF02C02FFF758FCBA8A7B8A9F
:101C900012B21BB29A4202DD7B8ABB8207E0FA8A4B
:101CA0007B8A12B21BB29A4201DA7B8AFB8202F073
:101CB000D9FED7E906457CA3D3E90023121943EBEB
:101CC0000503904271EB030CACBF00230123DBB290
:101CD000002BD0D1BA8A7B681A81FA8A7B685A8134
:101CE0004FF00003BB824FF00003FB8274484FF4B7
:101CF000FA71FFF723FB02F0B5FE6DA3D3E90023D1
:101D0000121843EB0103104619464FF0000209F088
:101D10008FFF6B484FF4FA71FFF710FB02F0A2FE41
:101D2000C7E9060107F11003184640F6E811C2F2B0
:101D300000014FF02802FFF701FCBA8A3B8A12B279
:101D40001BB29A4202DD3B8ABB8207E0FA8A3B8AD9
:101D500012B21BB29A4201DA3B8AFB8202F082FE87
:101D6000D7E9064550A3D3E90023121943EB050335
:101D7000904271EB030CACBF00230123DBB2002BBC
:101D8000D0D1BA8A7B681A80FA8A7B685A804FF071
:101D90000003BB824FF00003FB8249484FF4FA7105
:101DA000FFF7CCFA02F05EFE41A3D3E9002312183C
:101DB00043EB0103104619464FF0000209F038FFCB
:101DC0003F484FF4FA71FFF7B9FA02F04BFEC7E94A
:101DD000060107F10E03184640F6E811C2F20001B1
:101DE0004FF02A02FFF7AAFBBA8AFB8912B21BB294
:101DF0009A4202DDFB89BB8207E0FA8AFB8912B2B4
:101E00001BB29A4201DAFB89FB8202F02BFED7E972
:101E1000064525A3D3E90023121943EB050390429D
:101E200071EB030CACBF00230123DBB2002BD0D13C
:101E3000BA8A7B689A80FA8A7B68DA804FF000035E
:101E4000BB824FF00003FB821D484FF4FA71FFF78D
:101E500075FA02F007FE18A3D3E90023121843EB2A
:101E60000103104619464FF0000209F0E1FE144844
:101E70004FF4FA71FFF762FA02F0F4FD0EA3D3E912
:101E80000023121843EB0103104619464FF00002DD
:101E900009F0CEFE0A484FF4FA71FFF74FFA07F146
:101EA0002007BD46B0BD00BF00943577000000009C
:101EB00000CA9A3B000000000065CD1D0000000034
:101EC00078090020AFF30080B0B584B000AFF860AF
:101ED000B9607A603B603868FEF7BEFA04460D468A
:101EE000386AFEF7B9FA02460B46204629460BF03F
:101EF00025FC02460B4610461946FEF7E3FD024656
:101F0000BB681A60D7ED017AF1EE677A17EE903A66
:101F10001846FEF7A1FA04460D4697ED007AD7ED74
:101F2000007A27EE277AD7ED086AD7ED087A66EEB1
:101F3000A77A77EE277A17EE900AFEF78DFA024617
:101F40000B46104619460BF0FBFB02460B4620469B
:101F500029460BF0F3FB02460B4610461946FEF7E6
:101F6000B1FD0246FB681A6007F11007BD46B0BD1F
:101F700080B582B000AF78607868FEF76DFA0246EF
:101F80000B461046194608A3D3E90023FEF7B8FA1A
:101F900002460B4610461946FEF794FD03461846C6
:101FA00007F10807BD4680BD9A9999999999A93F6B
:101FB00080B582B000AF78607B680A4A1A607B689F
:101FC0001846FFF74BF94FF0000303F00103002B15
:101FD00002D0786802F04CFC7B68184607F10807CD
:101FE000BD4680BD0068010880B582B000AF786052
:101FF0007868FFF7DDFF786802F03AFC7B681846E6
:1020000007F10807BD4680BD80B582B000AF78609B
:102010007B68184645F62841C0F601014FF064027E
:102020004FF4FA6309F08CFC7B6803F15003184607
:1020300040F62821C2F2000145F63842C0F60102FE
:1020400001F0BEFC7B680D4A1A607B680C4A1A6579
:102050007B684FF06402C3F884207B684FF0000275
:1020600083F8B8207B684FF00002C3F8B4207B6887
:10207000184607F10807BD4680BD00BFC0670108CC
:10208000DC67010880B483B000AF78607B6893F8A8
:10209000B830184607F10C07BD4680BC704700BF3A
:1020A00080B582B000AF786040F62410C2F2000024
:1020B0004FF001014FF001024FF0010303F0D6FE93
:1020C00050484FF001014FF001024FF0010303F0BF
:1020D000CDFE40F60810C2F200004FF000014FF0B4
:1020E00001024FF0000303F0C1FE40F6B010C2F24F
:1020F000000044F24021C0F20F014FF0000204F052
:10210000C7FC40F6CC10C2F200004FF001014FF0C6
:1021100001024FF0010303F0A9FE40F6B010C2F235
:10212000000040F6CC11C2F20001FFF76BF940F657
:102130009410C2F2000045F66041C0F60101FFF7BD
:1021400035F940F6E810C2F200004FF001014FF0FF
:1021500001024FF0010303F089FE40F6B010C2F215
:10216000000040F6E811C2F20001FFF791F940F6D5
:102170009410C2F2000045F6A441C0F60101FFF739
:1021800015F97B684FF00002A3F888207B684FF0B8
:102190000002A3F88A207B684FF00002A3F88C208D
:1021A0007B684FF00002A3F8A0207B684FF000028C
:1021B000A3F8A2207B684FF00002A3F8A4207B685C
:1021C0004FF00002A3F8A6207B684FF00002A3F8AE
:1021D000A8207B684FF00002A3F8AA207B684FF08C
:1021E0000002A3F894207B684FF00002A3F8962029
:1021F0007B684FF00002A3F8982007F10807BD465E
:1022000080BD00BF7809002080B485B000AF786041
:1022100039603B68FB60FB681B78492B08D1FB6881
:10222000D3ED017AFCEEE77A7B68C3ED217A00BF3B
:1022300007F11407BD4680BC704700BFA0F15000F5
:10224000E2E700BF000000002DE9B04F2DED048B48
:10225000D6B00AAF07F10403186007F104031B6846
:1022600093F8B83083F00103DBB2002B00F0548206
:1022700000E000BF40F60810C2F2000003F06EFF5D
:102280000346012B14BF00230123DBB2002B00F017
:10229000C6817D484FF4C871FFF750F802F0E2FBA9
:1022A00077A3D3E90023121843EB01031046194624
:1022B0004FF0000209F0BCFC40F20003C2F2000340
:1022C0001B78022B70D0032B00F0E680012B40F02E
:1022D000908107F104031B6803F188031846FFF798
:1022E00047FA40F69410C2F2000045F6D441C0F619
:1022F0000101FFF75BF845F61053C0F60103C7F87C
:10230000243107F104031B68B3F888301BB207EED1
:10231000903AB8EEE77ADFED5D7A67EE277A17EE4E
:10232000900AFEF799F804460D4607F104031B686E
:10233000B3F88A301BB207EE903AB8EEE77ADFEDD9
:10234000537A67EE277A17EE900AFEF785F88046F3
:10235000894607F104031B68B3F88C301BB207EE03
:10236000903AB8EEE77ADFED497A67EE277A17EE12
:10237000900AFEF771F802460B4607F10C01CDE911
:102380000089CDE902230846D7F8241122462B46BE
:102390000DF0E6F907F10C0340F69410C2F20000CC
:1023A0001946FFF703F824E107F104031B6803F162
:1023B00094031846FFF71CFB40F69410C2F200008D
:1023C00045F64C51C0F60101FEF7F0FF45F67C538F
:1023D000C0F60103C7F8203107F104031B68B3F806
:1023E00094301BB207EE903AB8EEE77ADFED287A28
:1023F00067EE277A17EE900AFEF72EF804460D4690
:1024000007F104031B68B3F896301BB207EE903A4D
:10241000B8EEE77ADFED1E7A67EE277A17EE900ABC
:10242000FEF71AF88046894607F104031B68B3F8E3
:1024300098301BB207EE903AB8EEE77ADFED147AE7
:1024400067EE277A17EE900AFEF706F802460B466B
:1024500007F10C01CDE90089CDE902230846D7F840
:10246000201122462B460DF07BF907F10C0340F6B4
:102470009410C2F200001946FEF798FFB9E000BFC1
:102480000065CD1D000000007809002040DA7F388B
:10249000295C8F3DF7CC123907F104031B6803F167
:1024A000A0031846FFF7D4FB40F69410C2F20000D8
:1024B00045F6C051C0F60101FEF778FF45F6F4532A
:1024C000C0F60103C7F81C3107F104031B68B3F819
:1024D000A2301BB207EE903AB8EEE77A5FED137ABE
:1024E00067EE277A17EE900AFDF7B6FF04460D4611
:1024F00007F104031B68B3F8A6301BB207EE903A4D
:10250000B8EEE77A5FED1D7A67EE277A17EE900A4C
:10251000FDF7A2FF41EC190B07F104031B68B3F8A8
:10252000AA301BB207EE903AB8EEE77A5FED277A51
:1025300067EE277A17EE900AFDF78EFF41EC180B35
:1025400007F104031B68B3F8A0301BB207EE903A02
:10255000B8EEE77A5FED317A67EE277A17EE900AE8
:10256000FDF77AFF82468B4607F104031B68B3F838
:10257000A4301BB207EE903AB8EEE77A5FED3B7AF3
:1025800067EE277A17EE900AFDF766FF80468946C8
:1025900007F104031B68B3F8A8301BB207EE903AAA
:1025A000B8EEE77A5FED457A67EE277A17EE900A84
:1025B000FDF752FF02460B4607F10C018DED009B23
:1025C0008DED028BCDE904ABCDE90689CDE9082379
:1025D0000846D7F81C1122462B460DF0C1F807F12A
:1025E0000C0340F69410C2F200001946FEF7DEFE1E
:1025F00000BF40F20003C2F200031B7803F10103A5
:10260000DAB240F20003C2F200031A7040F2000393
:10261000C2F200031B78042B7FF42BAE05E02648A2
:102620004FF09601FEF78AFE23E640F69410C2F2C0
:10263000000045F69461C0F60101FEF7B7FE4FF0C9
:102640000003C7F82C3117E0D7F82C2113464FEAC6
:10265000C3039B1A4FEA830340F62412C2F200021E
:102660009B1818464FF0010103F020FDD7F82C31DC
:1026700003F10103C7F82C31D7F82C31032BCCBF61
:1026800000230123DBB2002BDED102F0EBF908A31B
:10269000D3E90023121843EB0103104619464FF00B
:1026A000000209F0C5FA4FF00003C7F8283123E013
:1026B00000CA9A3B000000007809002040DA7F3809
:1026C000295C8F3DF7CC1239D7F8282113464FEA01
:1026D000C3039B1A4FEA830340F62412C2F200029E
:1026E0009B1818464FF0000103F0E0FCD7F82831A2
:1026F00003F10103C7F82831D7F82831032BCCBFE9
:1027000000230123DBB2002BDED107F104031B6899
:102710004FF0010283F8B82040F62410C2F2000006
:102720004FF4FA71FEF70AFE4FF00003A7F81431D8
:102730004FF00003A7F816314FF00003A7F8183147
:1027400007F58A73184640F6CC11C2F200014FF02B
:102750002802FEF739FFB7F814311AB207F1040363
:102760001B68B3F888301BB2D31A07EE903AB8EE64
:10277000E77A5FED2E7A67EE277AC7ED427AB7F8EF
:1027800016311AB207F104031B68B3F88A301BB282
:10279000D31A07EE903AB8EEE77A5FED387A67EE33
:1027A000277AC7ED437AB7F818311AB207F1040354
:1027B0001B68B3F88C301BB2D31A07EE903AB8EE10
:1027C000E77A5FED427A67EE277AC7ED447A07F53C
:1027D000847340F65020C2F20000194601F00CF953
:1027E0004FF00003A7F800314FF00003A7F80231C3
:1027F0004FF00003A7F8043107F58073184640F640
:10280000CC11C2F200014FF01802FEF7DDFEB7F85E
:1028100000311AB207F104031B68B3F894301BB2FD
:10282000D31A07EE903AB8EEE77A5FED5B7A67EE7F
:10283000277AC7ED3D7AB7F802311AB207F10403DF
:102840001B68B3F896301BB2D31A07EE903AB8EE75
:10285000E77A5FED657A67EE277AC7ED3E7AB7F8DB
:1028600004311AB207F104031B68B3F898301BB2A5
:10287000D31A07EE903AB8EEE77A5FED6F7A67EE1B
:10288000277AC7ED3F7A07F1F40340F6E020C2F261
:102890000000194601F0B0F84FF00003A7F8EC3043
:1028A0004FF00003A7F8EE304FF00003A7F8F03028
:1028B00007F1EC03184640F6CC11C2F200014FF0CC
:1028C0002802FEF781FEB7F8EC301AB207F10403D4
:1028D0001B68B3F8A0301BB2D21A07F104031B68BF
:1028E000B3F8A23019B207F104031B68B3F8A030A3
:1028F0001BB2CB1A92FBF3F34FEA430303F1FF330E
:1029000007EE903AB8EEE77A5FED927A67EE277AB3
:10291000C7ED387AB7F8EE301AB207F104031B6836
:10292000B3F8A4301BB2D21A07F104031B68B3F842
:10293000A63019B207F104031B68B3F8A4301BB228
:10294000CB1A92FBF3F34FEA430303F1FF3307EE95
:10295000903AB8EEE77A5FEDA57A67EE277AC7ED91
:10296000397AB7F8F0301AB207F104031B68B3F8EC
:10297000A8301BB2D21A07F104031B68B3F8AA30BF
:1029800019B207F104031B68B3F8A8301BB2CB1AC5
:1029900092FBF3F34FEA430303F1FF3307EE903A60
:1029A000B8EEE77A5FEDB97A67EE277AC7ED3A7A43
:1029B00007F1E00340F69820C2F20000194601F04A
:1029C0001BF84FF00003A7F8DE3007F1DE031846CE
:1029D00040F6CC11C2F200014FF01502FEF7AEFD39
:1029E000B7F8DE301BB207EE903AB8EEE77AF3EEB6
:1029F000007A87EE277AF3EE097A77EE277AC7ED29
:102A0000367A07F1D80340F62830C2F200001946A2
:102A100001F02AF802F026F804460D4607F10403F7
:102A20001B68D3F884100A464FF0000344F240219B
:102A3000C0F20F0101FB03F04FF0000101FB02F1B6
:102A4000401844F24021C0F20F01A2FB0123C1183B
:102A50000B46121943EB0503104619464FF00002CE
:102A600009F0E6F8FFF7F9BB80B582B000AF7860F7
:102A70007B68184645F62841C0F601014FF0640214
:102A80004FF4FA6308F05CFF7B6803F150031846CB
:102A900040F62821C2F2000145F63842C0F6010294
:102AA00000F08EFF7B680D4A1A607B680C4A1A653D
:102AB0007B6840F2DC52C3F884207B684FF0000250
:102AC00083F8B0207B684FF00002C3F8AC207B682D
:102AD000184607F10807BD4680BD00BF80670108A2
:102AE0009C67010880B485B000AF786039603B68AE
:102AF000FB60FB681B78A3F14103132B23D84FF035
:102B0000010202FA03F245F2C103C0F201031340CD
:102B1000002B0CD102F40023002B14D0FB68D3ED62
:102B2000017AFCEEE77A7B68C3ED217A0BE0FB6863
:102B3000D3ED017AFCEEE77A17EE903ADAB27B68D1
:102B400083F8B02000BF07F11407BD4680BC704772
:102B5000A0F15000C6E700BF2DE9B0432DED028B78
:102B6000BCB004AF786040F65830C2F20000FFF706
:102B700089FA0346002B00F0A0820D484FF4FA7149
:102B8000FEF7DCFB7B6893F8B030052B00F28B82FC
:102B900001A252F823F000BFB52B0008B52B0008A6
:102BA000352C0008412D0008C12D0008192E000801
:102BB0004009002045F6C463C0F60103C7F8DC30C5
:102BC00007F1B00340F65020C2F20000194600F0B1
:102BD00081FFD7F8B0301846FDF73EFC04460D469D
:102BE000D7F8B4301846FDF737FC80468946D7F849
:102BF000B8301846FDF730FC02460B4607F10C01D1
:102C0000CDE90089CDE902230846D7F8DC10224639
:102C10002B460CF0A5FD07F10C0340F69410C2F210
:102C200000001946FEF7C2FB7B6893F8B030002B1A
:102C300040F0328245F6EC63C0F60103C7F8D830A5
:102C400007F1A40340F6E020C2F20000194600F0AC
:102C500041FFD7F8A4301846FDF7FEFB02460B46AD
:102C6000104619464FF000024FF40043C4F26603C9
:102C7000FDF746FC02460B46104619460FF2884304
:102C8000D3E90023FDF766FD02460B4614461D46B8
:102C9000D7F8A8301846FDF7DFFB02460B46104672
:102CA00019464FF000024FF40043C4F26603FDF7EB
:102CB00027FC02460B46104619460FF24C43D3E957
:102CC0000023FDF747FD02460B4690469946D7F88C
:102CD000AC301846FDF7C0FB02460B4610461946BD
:102CE0004FF000024FF40043C4F26603FDF708FC06
:102CF00002460B46104619460FF20C43D3E9002357
:102D0000FDF728FD02460B4607F10C01CDE90089CD
:102D1000CDE902230846D7F8D81022462B460CF0FE
:102D20001FFD07F10C0340F69410C2F20000194693
:102D3000FEF73CFB7B6893F8B030002B40F0AE818F
:102D400045F61C73C0F60103C7F8D43007F19803A9
:102D500040F69820C2F20000194600F0BBFED7F8FA
:102D600098301846FDF778FB04460D46D7F89C309E
:102D70001846FDF771FB80468946D7F8A030184603
:102D8000FDF76AFB02460B4607F10C01CDE900890D
:102D9000CDE902230846D7F8D41022462B460CF082
:102DA000DFFC07F10C0340F69410C2F20000194654
:102DB000FEF7FCFA7B6893F8B030002B40F070818E
:102DC00045F65073C0F60103C7F8D03007F1800311
:102DD00040F62830C2F20000194600F0A5FED7F8F0
:102DE00080301846FDF738FB02460B4607F1840198
:102DF0000846D7F8D0100CF0B3FC07F1840340F676
:102E00009410C2F200001946FEF7D0FA7B6893F8DE
:102E1000B030002B40F0468145F66473C0F60103E4
:102E2000C7F8CC304FF00003BB654FF000037B6563
:102E30004FF00003C7F8C83007F1740340F6502084
:102E4000C2F20000194600F045FE07F1680340F6A3
:102E50009820C2F20000194600F03CFE07F15C0326
:102E600040F6E020C2F20000194600F033FE7A6F0F
:102E7000BB6FFC6F07F1540007F158010094FFF796
:102E800023F87B6E1846FFF773F8C7F8C8004FF0B9
:102E90000003C7F8C4304FF00003C7F8C0304FF04C
:102EA0000003C7F8BC30BB6D18460AF0BFFB08EE44
:102EB000100A7B6D18460AF0B9FB07EE900A28EE5F
:102EC000277AD7ED187A27EE278ABB6D18460AF0C5
:102ED000EDFB08EE900A7B6D18460AF0A7FB07EEA3
:102EE000900A28EEA77AD7ED197A67EE277A78EE5E
:102EF000677AC7ED317A7B6D18460AF097FB07EECB
:102F0000100AD7ED177A27EE278ABB6D18460AF00C
:102F1000CDFB08EE900A7B6D18460AF0C7FB07EE62
:102F2000900A28EEA77AD7ED187A67EE277A38EE5E
:102F3000278ABB6D18460AF079FB08EE900A7B6D74
:102F400018460AF0B3FB07EE900A28EEA77AD7EDF1
:102F5000197A67EE277A78EE277AC7ED307ABB6D5B
:102F600018460AF0A3FB07EE100AD7ED187A27EEF1
:102F7000278ABB6D18460AF059FB07EE100AD7EDF9
:102F8000197A67EE277A78EE277AC7ED2F7A97EDD0
:102F9000157AD7ED317A77EE277AC7ED157A97ED66
:102FA000167AD7ED307A77EE277AC7ED167A97ED55
:102FB000327AD7ED2F7A77EE277AC7ED327ABB6D6A
:102FC0001846FDF749FA02460B461046194650A32B
:102FD000D3E90023FDF794FA02460B461046194642
:102FE000FDF770FD0346BB657B6D1846FDF734FAAF
:102FF00002460B461046194645A3D3E90023FDF7C8
:103000007FFA02460B4610461946FDF75BFD034664
:103010007B65D7F8C800FDF71FFA02460B4610463D
:1030200019463BA3D3E90023FDF76AFA02460B4693
:1030300010461946FDF746FD0346C7F8C830BB6D7C
:103040001846FDF709FA04460D467B6D1846FDF754
:1030500003FA80468946D7F8C800FDF7FDF9024615
:103060000B4607F10C01CDE90089CDE902230846A2
:10307000D7F8CC1022462B460CF072FB07F10C035C
:1030800040F69410C2F200001946FEF78FF97B68F3
:1030900093F8B030002B06E000BF04E000BF02E070
:1030A00000BF00E000BF40F69410C2F2000045F6F9
:1030B0008871C0F60101FEF779F901F0D3FC0446EE
:1030C0000D467B68D3F884100A464FF0000344F2A3
:1030D0004021C0F20F0101FB03F04FF0000101FBA2
:1030E00002F1401844F24021C0F20F01A2FB01237B
:1030F000C1180B46121943EB0503104619464FF051
:10310000000208F095FD2EE5182D4454FB210940DE
:10311000F8C1631ADCA54C4080B582B000AF78607E
:103120007B680A4A1A607B681846FEF797F84FF0EA
:10313000000303F00103002B02D0786801F098FB34
:103140007B68184607F10807BD4680BD586701082F
:1031500080B582B000AF78607868FFF7DDFF7868EF
:1031600001F086FB7B68184607F10807BD4680BD65
:1031700080B582B000AF78607B68184645F628417C
:10318000C0F601014FF064024FF4FA6308F0D8FB77
:103190007B6803F15003184640F60421C2F2000197
:1031A00045F68C72C0F6010200F0E4FC7B68054A2B
:1031B0001A607B68044A1A657B68184607F108079D
:1031C000BD4680BD186701083467010880B586B028
:1031D00000AF786039603B687B616A484FF47A7170
:1031E000FEF7ACF87B691B78A3F14103132B00F2C7
:1031F000BF8001A252F823F0B532000871330008F5
:10320000713300087133000871330008713300080E
:10321000D9320008253300087133000871330008E3
:103220007133000871330008FD3200087133000863
:1032300049330008713300089132000871330008E7
:10324000493200086D3200084FF049033B737B6937
:103250005B683B6107F10C0340F62820C2F20000D6
:1032600019464FF0010200F0A1FC81E04FF0540339
:103270003B737B695B683B6107F10C0340F62820D8
:10328000C2F2000019464FF0010200F08FFC6FE01F
:103290004FF051033B734FF000033B6107F10C0308
:1032A00040F62820C2F2000019464FF0010200F05B
:1032B0007DFC5DE04FF041033B734FF07E533B617B
:1032C00007F10C0340F62820C2F2000019464FF027
:1032D000010200F06BFC4BE04FF047033B734FF0F3
:1032E00080433B6107F10C0340F62820C2F2000046
:1032F00019464FF0010200F059FC39E04FF04D0340
:103300003B734FF00003C4F240033B6107F10C0331
:1033100040F62820C2F2000019464FF0010200F0EA
:1033200045FC25E04FF048033B734FF081433B6180
:1033300007F10C0340F62820C2F2000019464FF0B6
:10334000010200F033FC13E04FF04F033B734FF0EA
:103350000003C4F2A0033B6107F10C0340F62820F0
:10336000C2F2000019464FF0010200F01FFC00BF3E
:1033700004484FF4FA71FDF7E1FF07F11807BD4665
:1033800080BD00BF5C090020A0F150001EE700BF17
:1033900080B582B000AF78600B484FF4FA71FDF74A
:1033A000CDFF01F05FFB06A3D3E90023121843EB26
:1033B0000103104619464FF0000208F039FCEBE714
:1033C0000065CD1D000000005C090020AFF3008007
:1033D00080B483B000AF786039603B6803F10103CB
:1033E0001B78184607F10C07BD4680BC704700BF2C
:1033F0002DE9F04F89B000AFF860B9607A606B4694
:103400001E46BB6803F10203FB617B6803F1FF31D9
:103410007961084602464FF000034FF0010A4FF071
:10342000000B12EB0A0243EB0B034FEA52704FEA18
:10343000C30940EA09094FEAC208084602464FF0AC
:1034400000034FF001084FF0000912EB080243EBB4
:1034500009034FEA52704FEAC30505434FEAC2041D
:103460000B4603F1010303F107034FEAD3034FEACD
:10347000C303ADEB030D6B4603F100033B614FF05B
:103480000003BB610DE0FB691A783969BB69CB1891
:103490001A70FB6903F10103FB61BB6903F10103CE
:1034A000BB61BA697B689A42ACBF00230123DBB2DF
:1034B000002BE8D13B6918460BF0B2FD02460B46E3
:1034C00010461946FDF7FEFA0346B546184607F1C1
:1034D0002407BD46BDE8F08F80B584B000AF7860AA
:1034E0003960386801F09EF90346FB73FB7B032BC0
:1034F00002D84FF0000327E03B681B78242B0CBF59
:1035000000230123DAB2FB7B03F1FF333968CB18C8
:103510001B78232B0CBF00230123DBB21340DBB24B
:10352000002B02D04FF000030EE03B6803F10103D3
:103530001B7818460BF0BAFD0346002B02D14FF062
:10354000000301E04FF00103184607F11007BD46E4
:1035500080BD00BF80B582B000AF786039607B6805
:10356000184645F62841C0F601014FF064024FF4B9
:10357000FA6308F0E5F97B68054A1A607B683A68E7
:103580001A657B68184607F10807BD4680BD00BF75
:103590000067010880B582B000AF78607B681B6D62
:1035A0001B6803F134031B687A68126D10464FF4F0
:1035B000E13198477B681B6D1B6803F138031B687A
:1035C0007A68126D10464FF002014FF001029847E1
:1035D00007F10807BD4680BD80B59AB000AF78609E
:1035E00007F10C034FF000021A6003F104034FF0DF
:1035F00000021A6003F104034FF000021A6003F1A5
:1036000004034FF000021A6003F104034FF00002BC
:103610001A6003F104034FF000021A6003F104037F
:103620004FF000021A6003F104034FF000021A6029
:1036300003F104034FF000021A6003F104034FF09A
:1036400000021A6003F104034FF000021A6003F154
:1036500004034FF000021A6003F104034FF000026C
:103660001A8003F1020307F10C037B664FF000039D
:103670003B664FF0000387F85F304FF000024FF0D9
:103680000003C7E912234FF000024FF00003C7E91F
:1036900014237B681B6D1B6803F118031B687A6891
:1036A000126D104698470346002B52D031E001F0CE
:1036B000D9F902460B46C7E912237B681B6D1B68CC
:1036C00003F148031B687A68126D10469847034659
:1036D000DAB27B6E1A707B6E03F101037B663B6E80
:1036E00003F101033B664FF0010387F85F3001F0FF
:1036F000B9F902460B4610461946D7E91223821A39
:1037000061EB0303D7E91401121843EB0103C7E986
:1037100014237B681B6D1B6803F13C031B687A68EC
:10372000126D10464FF0000198470346002B0BD056
:10373000D7E9142348A1D1E90001994208BF90427A
:1037400002D34FF0010301E04FF00003002BAED194
:1037500016E07B681B6D18464FF0FF326FF0004398
:1037600000F06CFF01F07EF93DA3D3E900231218AD
:1037700043EB0103104619464FF0000208F058FAD7
:1037800097F85F30002B5CD0D7E9142332A1D1E940
:103790000001994208BF904210D27B681B6D1B68E4
:1037A00003F140031B687A68126D104645F6A0715C
:1037B000C0F601014FF01202984742E007F10C03F6
:1037C00040F65850C2F200001946FFF785FE034646
:1037D000002B26D007F10C0340F65850C2F200002F
:1037E0001946FFF7F5FD034687F840303B6EA3F11D
:1037F000030307F10C0240F65850C2F200001146D4
:103800001A46FFF7F5FD03467B6407F1400340F6D7
:103810000420C2F2000019464FF0010200F0DCF96A
:103820000FE07B681B6D1B6803F140031B687A681F
:10383000126D104645F6B471C0F601014FF0140246
:1038400098474FF000024FF00003C7E914234FF0F0
:10385000000387F85F30C3E6FFF1052A010000008E
:1038600080B2E60E0000000080B584B000AFF860C2
:10387000B9607A60FB681846B9684FF008027B6847
:1038800001F074F9FB68044A1A60FB68184607F1F6
:103890001007BD4680BD00BF6868010880B584B0D0
:1038A00000AFF860B9607A60FB681846B9684FF0FD
:1038B00008027B6801F05AF9FB68044A1A60FB6849
:1038C000184607F11007BD4680BD00BF58680108C3
:1038D00080B483B000AF78607B68044A1A607B686C
:1038E000184607F10C07BD4680BC70477868010890
:1038F00080B582B000AF78607B681846FFF7E8FFBC
:103900007B68144A1A607B6803F104027B689A6240
:103910007B6803F110027B68DA627B6803F11C02AA
:103920007B681A637B684FF0000283F83420796863
:103930004FF000024FF00003C1E910237B68D3E988
:1039400010237968C1E90E237B68184607F1080740
:10395000BD4680BD4068010880B582B000AF786088
:103960007B681846FFF7B4FF7B68144A1A607B68CF
:1039700003F104027B681A617B6803F108027B682B
:103980005A617B6803F10C027B689A617B684FF097
:1039900000021A7779684FF000024FF00003C1E986
:1039A0000A237B68D3E90A237968C1E908237B6885
:1039B000184607F10807BD4680BD00BF286801080A
:1039C00080B584B000AFF860B9607A60FB681846D3
:1039D000B9687A6800F056FFFB68064A1A60FB680F
:1039E0004FF000021A63FB68184607F11007BD4646
:1039F00080BD00BF0068010880B485B000AF78606A
:103A000039607B689B6A3A6807CA83E807007B686D
:103A1000DB6AFB607B689A6A7B68DA627B68FA68BB
:103A20009A627B6893F83430DBB2002B09D07B6854
:103A30009B6AFB607B681A6B7B689A627B68FA689A
:103A40001A637B68D3E90E014FF001024FF00003C7
:103A5000121843EB01037968C1E90E2307F114073B
:103A6000BD4680BC704700BF80B485B000AF7860B1
:103A700039607B681B693A6812681A607B685B6909
:103A8000FB607B681A697B685A617B68FA681A6117
:103A90007B681B7FDBB2002B09D07B681B69FB6056
:103AA0007B689A697B681A617B68FA689A617B68AF
:103AB000D3E908014FF001024FF00003121843EB65
:103AC00001037968C1E9082307F11407BD4680BCEA
:103AD000704700BF80B485B000AF786039607B6804
:103AE0004FF0010283F834207B68DB6AFB603B689F
:103AF000FA6807CA83E807007B684FF0000283F882
:103B000034207B68D3E910014FF001024FF000032D
:103B1000121843EB01037968C1E9102307F1140778
:103B2000BD4680BC704700BF80B485B000AF7860F0
:103B300039607B684FF001021A777B685B69FB6034
:103B4000FB681A683B681A607B684FF000021A77BE
:103B50007B68D3E90A014FF001024FF0000312180D
:103B600043EB01037968C1E90A2307F11407BD4655
:103B700080BC704780B584B000AFF860B9607A60EF
:103B8000FB681846B9687A6800F07CFEFB68064A54
:103B90001A60FB684FF000021A63FB68184607F1D1
:103BA0001007BD4680BD00BF5867010880B584B0CE
:103BB00000AFF860B9601346FB71FA68FB791046F4
:103BC000B9681A464FF0000301F058F8034618464A
:103BD00007F11007BD4680BD80B584B000AFF86026
:103BE000B9601346FB71FA68FB791046B9681A464A
:103BF0004FF0000301F042F80346184607F11007A2
:103C0000BD4680BD80B582B000AF78607B680A4A4F
:103C10001A607B68184607F00DFF4FF0000303F0B1
:103C20000103002B02D0786800F022FE7B68184662
:103C300007F10807BD4680BD0067010880B582B066
:103C400000AF78607868FFF7DDFF786800F010FE5D
:103C50007B68184607F10807BD4680BD80B582B075
:103C600000AF78607B680F4A1A607B680E4A1A655D
:103C70007B6803F150031846FFF74EFA7B6818463D
:103C800007F0D8FE4FF0000303F00103002B02D031
:103C9000786800F0EDFD7B68184607F10807BD461F
:103CA00080BD00BF1867010834670108A0F150000B
:103CB000FFF7D4BF80B582B000AF78607868FFF7B7
:103CC000CDFF786800F0D4FD7B68184607F108073F
:103CD000BD4680BDA0F15000ECE700BF80B582B0CA
:103CE00000AF78607B680F4A1A607B680E4A1A65DD
:103CF0007B6803F150031846FEF75AF97B681846B3
:103D000007F098FE4FF0000303F00103002B02D0F0
:103D1000786800F0ADFD7B68184607F10807BD46DE
:103D200080BD00BF806701089C670108A0F15000BA
:103D3000FFF7D4BF80B582B000AF78607868FFF736
:103D4000CDFF786800F094FD7B68184607F10807FE
:103D5000BD4680BDA0F15000ECE700BF80B582B049
:103D600000AF78607B680F4A1A607B680E4A1A655C
:103D70007B6803F150031846FEF71AF97B68184672
:103D800007F058FE4FF0000303F00103002B02D0B0
:103D9000786800F06DFD7B68184607F10807BD469E
:103DA00080BD00BFC0670108DC670108A0F15000BA
:103DB000FFF7D4BF80B582B000AF78607868FFF7B6
:103DC000CDFF786800F054FD7B68184607F10807BE
:103DD000BD4680BDA0F15000ECE700BF80B582B0C9
:103DE00000AF78607B680A4A1A607B681846FDF766
:103DF00069FA4FF0000303F00103002B02D078684A
:103E000000F036FD7B68184607F10807BD4680BD07
:103E10002868010880B582B000AF78607868FFF745
:103E2000DDFF786800F024FD7B68184607F108077D
:103E3000BD4680BD80B582B000AF78607B680A4A1D
:103E40001A607B681846FDF73DFA4FF0000303F057
:103E50000103002B02D0786800F00AFD7B68184649
:103E600007F10807BD4680BD4068010880B582B0F3
:103E700000AF78607868FFF7DDFF786800F0F8FC45
:103E80007B68184607F10807BD4680BD90B583B032
:103E900000AF786039607B68012B40F025813A687B
:103EA0004FF6FF739A4240F01F8140F60810C2F2AD
:103EB00000004FF0000101F09FFF40F62413C2F212
:103EC00000031C4620464FF03C0101F095FF04F131
:103ED0001C0420464FF03D0101F08EFF04F11C044C
:103EE00020464FF03E0101F087FF04F11C03184605
:103EF0004FF03F0101F080FF40F69410C2F2000045
:103F00004FF0020103F012FC40F6B010C2F20000C4
:103F10004FF0010102F07EFD40F6CC10C2F200002D
:103F20004FF0060101F068FF40F6E810C2F2000011
:103F30004FF0290101F060FF40F60420C2F20000BA
:103F40004FF0FF3145F6CC72C0F60102FFF78CFC52
:103F500040F60420C2F2000044F2BD21C0F6000188
:103F600040F6E462C2F200020BF054F840F628205A
:103F7000C2F200004FF0FF3145F6E072C0F60102D8
:103F8000FFF78CFC40F62820C2F2000044F25921D1
:103F9000C0F6000140F6E462C2F200020BF03AF80B
:103FA00040F65020C2F20000FFF7A2FC40F650207D
:103FB000C2F2000043F63561C0F6000140F6E4624B
:103FC000C2F200020BF026F840F69820C2F2000080
:103FD000FFF78EFC40F69820C2F2000043F63561F0
:103FE000C0F6000140F6E462C2F200020BF012F8E3
:103FF00040F6E020C2F20000FFF77AFC40F6E02035
:10400000C2F2000043F63561C0F6000140F6E462FA
:10401000C2F200020AF0FEFF40F62830C2F20000B1
:10402000FFF79AFC40F62830C2F2000043F6DD515B
:10403000C0F6000140F6E462C2F200020AF0EAFFB4
:1040400040F65830C2F20000FDF7DEFF40F658306F
:10405000C2F2000043F65D51C0F6000140F6E46292
:10406000C2F200020AF0D6FF40F61840C2F2000089
:10407000FEF7FAFC40F61840C2F2000043F6DD41BC
:10408000C0F6000140F6E462C2F200020AF0C2FF8C
:1040900040F6D040C2F20000FFF76AF840F6D04088
:1040A000C2F2000043F65D41C0F6000140F6E46252
:1040B000C2F200020AF0AEFF40F66050C2F2000009
:1040C00040F69411C2F20001FFF744FA40F6605046
:1040D000C2F2000043F60541C0F6000140F6E4627A
:1040E000C2F200020AF096FF07F10C07BD4690BD30
:1040F00080B584B000AFF860B9607A603B60FB685F
:104100001B6803F118031B68F8683968BA69984797
:104110004FF00103184607F11007BD4680BD00BFF0
:1041200080B584B000AFF860B9607A60FB681B6846
:1041300003F114031B68F868B968984707F1100782
:10414000BD4680BD80B582B000AF786039607B68C5
:104150001B6B002B03D07B681B6B3868984707F1FB
:104160000807BD4680BD00BF80B584B000AFF860D1
:10417000B9607A603B60FB681B6803F118031B6839
:10418000F8683968BA6998474FF00103184607F193
:104190001007BD4680BD00BF80B584B000AFF86099
:1041A000B9607A60FB681B6803F114031B68F86848
:1041B000B968984707F11007BD4680BD80B582B049
:1041C00000AF786039607B681B6B002B03D07B6885
:1041D0001B6B3868984707F10807BD4680BD00BFD4
:1041E00080B584B000AFF860B9607A603B607B68EE
:1041F000042B08D945F6F070C0F6010000F034F940
:104200004FF0000305E0F8683968FFF72DFC4FF028
:104210000103184607F11007BD4680BD80B584B084
:1042200000AFF860B9607A603B607B680C2B08D9FE
:1042300045F6F070C0F6010000F016F94FF00003EB
:1042400005E0F8683968FFF7D7FB4FF0010318461F
:1042500007F11007BD4680BD80B582B000AF786021
:104260007B680D4A1A6046F20400C0F6010000F0B7
:10427000FBF87B681846FCF7BDFF4FF0000303F026
:104280000103002B02D0786800F0F2FA7B68184630
:1042900007F10807BD4680BD5868010880B582B0A7
:1042A00000AF78607868FFF7D7FF786800F0E0FA31
:1042B0007B68184607F10807BD4680BD80B582B00F
:1042C00000AF78607B680D4A1A6046F20400C0F6C1
:1042D000010000F0C9F87B681846FCF78BFF4FF02F
:1042E000000303F00103002B02D0786800F0C0FA4D
:1042F0007B68184607F10807BD4680BD686801085D
:1043000080B582B000AF78607868FFF7D7FF786833
:1043100000F0AEFA7B68184607F10807BD4680BD7D
:1043200080B500AF4FF001004FF6FF71FFF7AEFD13
:1043300080BD00BF80B582B000AF78607B68084A5E
:104340001A604FF0000303F00103002B02D07868DD
:1043500000F08EFA7B68184607F10807BD4680BD5D
:10436000A068010880B582B000AF78607868FFF778
:10437000E1FF786800F07CFA7B68184607F10807CF
:10438000BD4680BD80B582B000AF78600B46FB7043
:1043900097F90330184606F027FE07F10807BD46D7
:1043A00080BD00BF80B483B000AF78607B68044AF2
:1043B0001A607B68184607F10C07BD4680BC704741
:1043C000A06801080FB480B582B000AF40F20803C6
:1043D000C2F200031B68002B3ED03B461846FFF795
:1043E000E1FF07F114037B6040F6B853C2F200030B
:1043F0001B68002B0BD040F6B853C2F200031B68B9
:1044000046F21C00C0F60100194601F085F907F0DC
:104410006BF9034683F00103DBB2002B05D03B466A
:104420001846396900F0B6FE10E040F6BC50C2F202
:10443000000007F0ABF93B461846396900F0AAFEC8
:1044400040F6BC50C2F2000007F010FA06F01AFE67
:104450003B461846FFF76EFF07F10807BD46BDE86B
:10446000804004B0704700BF80B582B000AF786074
:1044700040F20403C2F200037A681A6046F2300088
:10448000C0F601007968FFF79DFF40F6B853C2F20D
:1044900000031B6803F1010240F6B853C2F20003A7
:1044A0001A6007F10807BD4680BD00BF80B582B025
:1044B00000AF786039607B68012B0AD13A684FF60B
:1044C000FF739A4205D140F6BC50C2F2000007F0DB
:1044D00041F907F10807BD4680BD00BF80B500AFB8
:1044E0004FF001004FF6FF71FFF7E0FF80BD00BF06
:1044F0000FB480B400AF4FF000031846BD4680BC37
:1045000004B0704780B483B000AF786007F10C0747
:10451000BD4680BC704700BF0FB480B400AF4FF001
:1045200000031846BD4680BC04B070470FB480B489
:1045300000AF4FF000031846BD4680BC04B0704782
:1045400080B483B000AF78604FF00003184607F1E5
:104550000C07BD4680BC704780B483B000AF786064
:104560004FF00003184607F10C07BD4680BC7047AA
:104570000FB480B400AF4FF000031846BD4680BCB6
:1045800004B070470FB480B400AF4FF0000318467A
:10459000BD4680BC04B070470FB480B400AF4FF08C
:1045A00000031846BD4680BC04B0704780B483B099
:1045B00000AF78607B680C4A1A607B684FF000029D
:1045C0001A617B684FF000025A607B684FF000026E
:1045D0009A607B684FF00002DA607B68184607F14A
:1045E0000C07BD4680BC7047B868010880B584B030
:1045F00000AFF860C7E9002305F0ECFFFB681B681B
:1046000003F110031B68F86898470346002B02D09B
:1046100005F0E6FF0EE007F0E1FA0246FB689A605B
:10462000FB689968D7E90023C1E90A2305F0D8FFA0
:1046300007F04CFA07F11007BD4680BD80B584B085
:1046400000AFF860C7E9002305F0C4FFFB681B68F2
:1046500003F118031B68F86898470346002B02D043
:1046600005F0BEFF0EE007F0B9FA0246FB68DA601B
:10467000FB68D968D7E90023C1E90A2305F0B0FF38
:1046800007F024FA07F11007BD4680BD80B582B05F
:1046900000AF78607B689B68002B04D07B689B68C8
:1046A000184607F0A7FA7B684FF000029A607B6813
:1046B0001B69002B07D07B681B691B681B687A6825
:1046C00012691046984707F10807BD4680BD00BF34
:1046D00080B582B000AF78607B685B68002B04D047
:1046E0007B685B68184607F085FA7B684FF000022C
:1046F0005A607B681B69002B09D07B681B691B68AB
:1047000003F104031B687A6812691046984707F1A1
:104710000807BD4680BD00BF80B582B000AF78609D
:104720007B68DB68002B04D07B68DB68184607F0E9
:1047300061FA7B684FF00002DA607B681B69002B2E
:1047400009D07B681B691B6803F108031B687A6842
:1047500012691046984707F10807BD4680BD00BFA3
:1047600080B584B000AFF860B9607A603B60FB68E8
:104770003A68DA60FB687A685A6040F6CC53C2F255
:1047800000031B68FA68936003F1010240F6CC5302
:10479000C2F200031A60F868B96800F007F8FB6815
:1047A000184607F11007BD4680BD00BF80B582B036
:1047B00000AF786039603B681A687B681A603B68B4
:1047C0007A681A6042F29803C2F200031B68002B59
:1047D0000CBF00230123DBB2002B0ED046F25C009D
:1047E000C0F60100FFF740FE7B685B6846F2900070
:1047F000C0F601001946FFF7E5FD07F10807BD46C1
:1048000080BD00BF80B582B000AF786046F2B400D2
:10481000C0F60100FFF728FE7B68184607F108077D
:10482000BD4680BD80B485B000AF78604FF0000316
:10483000FB607B68002B0AD14FF0000312E0FB689D
:1048400003F10103FB607B6803F101037B607B687C
:104850001B785BB2002B0CBF00230123DBB2002BC3
:10486000EDD1FB68184607F11407BD4680BC7047C0
:1048700080B483B000AF786007F10C07BD4680BC00
:10488000704700BF80B584B000AFF860B9607A604F
:10489000FB6803F10403184642F26011C2F2000102
:1048A00046F2DC02C0F601024FF00003FFF758FFAA
:1048B000FB68104A1A60FB68BA685A61FB6803F12A
:1048C0002003184606F046FFFB684FF000021A77F7
:1048D000FB684FF001025A77FB687A689A60FB68C0
:1048E0004FF000029A61FB68184607F11007BD46B9
:1048F00080BD00BFF868010880B485B000AFF860E3
:10490000B9607A603B604CF61553C0F25B73184691
:1049100007F11407BD4680BC704700BF90B587B053
:1049200002AFF860B9607A603B60FB685B7F83F040
:104930000103DBB2002B02D04FF0000349E0FB681B
:1049400003F12003184606F021FFFB689B69002B4A
:1049500010D0FB689B691B6803F108031C68FB68A7
:104960009A697B68396A00911046B9681A463B68B3
:10497000A0471FE0FB681B681C683B6A5B690093EB
:10498000F868B9687A683B68A04702464CF6155348
:10499000C0F25B739A420CBF00230123DBB2002BF1
:1049A00008D046F2E800C0F60100FFF75DFD4FF0C9
:1049B00001030EE0FB6803F12003184606F056FFE2
:1049C000FB689B69002B02D04FF0010301E04FF020
:1049D0000003184607F11407BD4690BD90B58DB091
:1049E00002AFF860B9607A603B60FB689B69002B9E
:1049F00010D0FB689B691B6803F108031C68FB6807
:104A00009A693B6807F1100100911046B9681A468F
:104A10007B68A04707F12C07BD4690BD80B483B0EA
:104A200000AF786079684FF000024FF00003C1E9F1
:104A3000002379684FF000024FF00003C1E9022320
:104A400079684FF000024FF00003C1E904237B684E
:104A50004FF011029A617B68184607F10C07BD46BA
:104A600080BC704780B500AF06F0BAF902460B462D
:104A70001046194680BD00BF80B584B000AFC7E9BD
:104A80000201C7E90023D7E90223D7E906019042D2
:104A900071EB030C02DAD7E9022332E0D7E90023F5
:104AA00052EA030104D14FF0FF326FF0004328E0D7
:104AB000D7E90601D7E90223821A61EB0303104606
:104AC0001946D7E90023FCF74DF802460B4610467D
:104AD00019464FF001024FF00003121843EB010397
:104AE000396803FB01F0796802FB01F1411838686D
:104AF000A0FB0223C9180B46D7E90201121843EBA9
:104B000001031046194607F11007BD4680BD00BFDE
:104B100080B582B000AF786039607B68012B0AD124
:104B20003A684FF6FF739A4205D140F6D050C2F270
:104B30000000FFF773FF07F10807BD4680BD00BF07
:104B400080B500AF4FF001004FF6FF71FFF7E0FFB7
:104B500080BD00BF80B483B000AF78607B681B6805
:104B6000184607F10C07BD4680BC704780B586B07B
:104B700000AFF860B9607A603B60FB6803F1040342
:104B8000184642F27011C2F200013A684FF0000379
:104B9000FFF7E6FDFB68384A1A60FB684FF0000239
:104BA0005A61FB68BA68DA61FB687A681A62FB6866
:104BB0004FF000029A61FB68DB69B3F1FF3F12D14D
:104BC000386807F073FC03461A46FB68DA61FB6835
:104BD000DA6940F2E7339A4205DCFB68DB6903F5EA
:104BE0007A72FB68DA6142F27013C2F200031B684A
:104BF000002B07D042F27013C2F200031B68A3F12E
:104C0000040301E04FF000037B6127E07B69DA6970
:104C1000BB689A4213D17A69FB689A420FD046F278
:104C20004810C0F60100FFF71FFC7B699B6846F245
:104C30005C10C0F60100B9683A68FFF7C3FB7B69F6
:104C400003F104031846FFF785FF0346002B02D04B
:104C5000A3F1040301E04FF000037B617B69002BAB
:104C60000CBF00230123DBB2002BCFD1FB68184619
:104C700007F11807BD4680BD9068010880B586B071
:104C800002AFF860B9603B601346FB71FB681B6ABA
:104C90001A46FB7939680091F868B96800F006F89F
:104CA0000346184607F11007BD4680BD90B591B088
:104CB00002AFF860B9607A60FB704FF000037B636D
:104CC000BB6C002B13D14FF000037B62FFF7CAFED1
:104CD00002460B46C7E9062307F036FC03463B6154
:104CE00006F07CFF03463B6207F11003BB64FB68E0
:104CF0009B69002B0FD0FB689B691B681C68FB68D5
:104D00009969FB68DA697B68B86C009008461146BF
:104D10001A46BB68A047FB685B69002B04D0FB68A0
:104D20005B69A3F1040301E04FF000033B6325E05E
:104D30003B6B5B7F002B12D03B6B1B6803F10403C2
:104D40001C68FB68DA697B68B96C0091386B1146A6
:104D50001A46BB68A04703467A6BD3187B633B6B4C
:104D600003F104031846FFF7F5FE0346002B02D0BB
:104D7000A3F1040301E04FF000033B633B6B002B06
:104D80000CBF00230123DBB2002BD1D1FB7883F0D1
:104D90000103DBB2002B01D07B6B3DE040F60C63DE
:104DA000C2F200035B69002B07D040F60C63C2F22D
:104DB00000035B69A3F1040301E04FF00003FB6211
:104DC00021E0FB6A1B6803F104031C68FB68DA69D5
:104DD0007B68B96C0091F86A11461A46BB68A04717
:104DE00003467A6BD3187B63FB6A03F1040318460E
:104DF000FFF7B0FE0346002B02D0A3F1040301E04D
:104E00004FF00003FB62FB6A002B0CBF0023012361
:104E1000DBB2002BD5D17B6B184607F13C07BD46B2
:104E200090BD00BF80B582B000AF78607B680D4A4E
:104E30001A6046F2D410C0F60100FFF715FB7B683C
:104E40001846FCF7D7F94FF0000303F00103002BDD
:104E500002D07868FFF70CFD7B68184607F1080759
:104E6000BD4680BD3869010880B582B000AF78606A
:104E70007868FFF7D7FF7868FFF7FAFC7B68184679
:104E800007F10807BD4680BD80B584B000AFF8606B
:104E9000B9607A60FB681846B9684FF00C027B680D
:104EA000FFF764FEFB68044A1A60FB68184607F1C6
:104EB0001007BD4680BD00BF3869010880B584B0C9
:104EC00000AFF860B9607A60FB681846B96840F2D4
:104ED0002E527B68FFF74AFEFB68044A1A60FB68A3
:104EE000184607F11007BD4680BD00BF28690108BC
:104EF00080B584B000AFF860B9607A60FB6818468E
:104F0000B9684FF004027B68FFF730FEFB68044A83
:104F10001A60FB68184607F11007BD4680BD00BF48
:104F20001869010880B582B000AF786039607B688D
:104F3000012B40F0BC803A684FF6FF739A4240F074
:104F4000B68040F6F050C2F2000046F2E411C0F61E
:104F500001014FF00A0207F087F940F6F050C2F263
:104F600000004CF2B521C0F6000140F6E462C2F246
:104F700000020AF04FF840F60C60C2F200004FF059
:104F8000000146F2F812C0F60102FFF77DFF40F67D
:104F90000C60C2F2000044F62561C0F6000140F644
:104FA000E462C2F200020AF035F840F63060C2F264
:104FB00000004FF0FF3146F20822C0F60102FFF771
:104FC0007DFF40F63060C2F2000045F21D11C0F6D0
:104FD000000140F6E462C2F200020AF01BF840F65B
:104FE0005460C2F200004FF0FF3146F21422C0F6C6
:104FF0000102FFF77DFF40F65460C2F2000045F267
:10500000B901C0F6000140F6E462C2F200020AF003
:1050100001F840F67860C2F200004FF0FF3146F22E
:105020002422C0F60102FFF763FF40F67860C2F267
:10503000000045F2B901C0F6000140F6E462C2F298
:10504000000209F0E7FF40F69C60C2F200004FF05A
:10505000FF3146F23422C0F60102FFF749FF40F665
:105060009C60C2F2000045F2B901C0F6000140F6B2
:10507000E462C2F2000209F0CDFF40F6C060C2F265
:1050800000004FF0FF3146F24822C0F60102FFF760
:10509000FBFE40F6C060C2F2000044F62561C0F697
:1050A000000140F6E462C2F2000209F0B3FF07F12A
:1050B0000807BD4680BD00BF80B582B000AF7860F4
:1050C0007B680D4A1A6046F2D410C0F60100FFF763
:1050D000CBF97B681846FCF78DF84FF0000303F01E
:1050E0000103002B02D07868FFF7C2FB7B681846EB
:1050F00007F10807BD4680BD1869010880B582B078
:1051000000AF78607868FFF7D7FF7868FFF7B0FBEB
:105110007B68184607F10807BD4680BD80B582B0A0
:1051200000AF78607B680D4A1A6046F2D410C0F672
:105130000100FFF799F97B681846FCF75BF84FF020
:10514000000303F00103002B02D07868FFF790FB07
:105150007B68184607F10807BD4680BD286901082D
:1051600080B582B000AF78607868FFF7D7FF7868C5
:10517000FFF77EFB7B68184607F10807BD4680BD38
:1051800080B500AF4FF001004FF6FF71FFF7CAFE88
:1051900080BD00BF80B594B000AF78603960A4E2F4
:1051A0004FF0000387F84E304FF0000387F84D3082
:1051B0004FF0000387F84C304FF0000387F84B3076
:1051C00097F84F30252B0BD07B681B6803F1080341
:1051D0001B6897F84F2052B278681146984784E2CE
:1051E0003B681B7887F84F303B6803F101033B6055
:1051F0004FF0000387F843304FF0200387F8423028
:105200004FF0030387F8413097F84F30302B0BD124
:1052100097F84F3087F842303B681B7887F84F305B
:105220003B6803F101033B6097F84F302F2B11D9F6
:1052300097F84F30392B0DD897F84F30A3F1300342
:1052400087F843303B681B7887F84F303B6803F1A1
:1052500001033B6097F84F302E2B15D13B681B782C
:1052600087F84F303B6803F101033B6097F84F30FC
:10527000A3F1300387F841303B681B7887F84F3043
:105280003B6803F101033B6097F84F306C2B0BD167
:105290004FF0010387F84D303B681B7887F84F309B
:1052A0003B6803F101033B6097F84F306C2B0BD147
:1052B0004FF0010387F84C303B681B7887F84F307C
:1052C0003B6803F101033B6097F84F30A3F16203A1
:1052D000162B3AD801A151F823F000BFEF53000874
:1052E00039530008D35300084B530008CB53000830
:1052F0004B5300084B5300084B5300084B53000816
:105300004B5300084B5300084B5300084B53000805
:10531000AF5300084B5300084B5300084B53000891
:10532000635300084B530008DB5300084B5300083D
:105330004B530008E55300087B685B6803F10401E8
:105340007A6851601B6887F84F307B681B6803F1EF
:1053500008031B6897F84F2052B2786811469847A7
:10536000C3E17B685B6803F104017A6851601B68E4
:105370007B640AE07B681B6803F108031B6897F8ED
:105380004F2052B27868114698477B6C1B7887F89B
:105390004F3097F84F30002B0CBF00230123DBB2B6
:1053A0007A6C02F101027A64002BE3D19DE14FF0A7
:1053B0000803A7F848307B681B6803F108031B68E3
:1053C00078684FF03001984716E04FF0010387F8F6
:1053D0004B304FF0010387F84E304FF00A03A7F827
:1053E000483009E04FF01003A7F8483004E04FF0D0
:1053F0000203A7F8483000BF4FF000024FF000034F
:10540000C7E90C234FF000024FF00003C7E90A235D
:1054100097F84B30002B16D07B685B6803F10703CD
:1054200023F0070303F108017A685160D3E90023F0
:10543000C7E90A23D7E90A01FBF7C6FB02460B4678
:10544000C7E90C232FE097F84C30002B0ED07B6877
:105450005B6803F1070323F0070303F108017A688F
:105460005160D3E90023C7E90C231CE097F84D30C5
:10547000002B0CD07B685B6803F104017A685160F3
:1054800019680A464FEAE273C7E90C230BE07B6810
:105490005B6803F104017A68516019680A464FEAB3
:1054A000E273C7E90C2397F84E30002B30D0D7E9D0
:1054B0000C23002A73F100010ADBD7E90A014FF03F
:1054C00000024FF00003FBF78DFA0346002B1FD0BC
:1054D000D7E90C23524263EB4303C7E90C23BB6AB1
:1054E000BB62FB6A83F00043FB627B681B6803F1CD
:1054F00008031B6878684FF02D01984797F84330F0
:10550000002B05D097F8433003F1FF3387F8433081
:1055100097F84C30002B04D0D7E90C23C7E90E23B1
:1055200010E097F84D30002B06D0396B0A464FF04B
:105530000003C7E90E2305E0396B0A464FF000036C
:10554000C7E90E2307F10C0303F11A037B647B6C9C
:1055500003F1FF337B647B6C4FF000021A70B7F8E5
:1055600048204FF00003D7E90E01FBF717FBD3B239
:1055700003F13003DBB287F8273097F92730392B56
:1055800006DD97F8273003F10703DBB287F82730F1
:105590007B6C03F1FF337B6497F827207B6C1A70D8
:1055A000B7F848204FF00003D7E90E01FBF7F6FAF1
:1055B00002460B46C7E90E2397F84330002B05D06F
:1055C00097F8433003F1FF3387F84330BA6BFB6B36
:1055D0001343002B0CBF00230123DBB2002BBED1F1
:1055E00007E07B6C03F1FF337B647B6C97F8422010
:1055F0001A7097F84330002B0CBF00230123DBB255
:1056000097F8432002F1FF3287F84320002BE8D1BE
:105610000AE07B681B6803F108031B6897F84F20BA
:1056200052B27868114698477B6C1B7887F84F30E8
:1056300097F84F30002B0CBF00230123DBB27A6CAC
:1056400002F101027A64002BE3D197F84B30002B72
:105650004BD07B681B6803F108031B6878684FF028
:105660002E01984732E0D7E90C01FAF71BFF0246FA
:105670000B46D7E90A01FAF78FFD02460B46C7E948
:105680000A23D7E90A014FF000024FF00003C4F2E9
:105690002403FAF735FF02460B46C7E90A23D7E988
:1056A0000A01FBF791FA02460B46C7E90C237B6817
:1056B0001B6803F108031B6897F8302002F13002E1
:1056C000D2B2D2B252B278681146984797F84130B8
:1056D000002B0CBF00230123DBB297F8412002F11D
:1056E000FF3287F84120002BBDD13B681B7887F83B
:1056F0004F3097F84F30002B0CBF00230123DBB253
:105700003A6802F101023A60002B7FF449AD07F1DB
:105710005007BD4680BD00BF0FB480B582B000AF5A
:1057200040F20803C2F200031B68002B0FD03B4677
:105730001846FEF737FE07F114037B603B46184618
:105740003969FFF727FD3B461846FEF7F3FD07F1E1
:105750000807BD46BDE8804004B0704780B582B000
:1057600000AF47F2B013C0F601037B600AE07B682C
:105770001B6898473B6803F101033B607B6803F1BA
:1057800004037B607A6847F2D413C0F601039A429F
:10579000EDD13B6803F101033B603B6803F1FF334C
:1057A0003B6007F10807BD4680BD00BF80B485B0EF
:1057B00000AFF860B9607A604FF00003184607F157
:1057C0001407BD4680BC704780B400AFFEE700BF41
:1057D000002100F004B8124B5B58435004311148CB
:1057E000114B42189A42FFF4F6AF104A00F003B88A
:1057F000002342F8043B0E4B9A42FFF4F9AF0D4AE6
:1058000000F003B8002342F8043B0B4B9A42FFF42C
:10581000F9AF05F03DFCFFF7A1FF06F0F9FF704777
:10582000D4710108000000200809002008090020A8
:10583000B8C20020000000100000001005F072FB4C
:10584000FFF7FCBF80B483B000AF786039603B687D
:10585000184607F10C07BD4680BC704780B483B082
:1058600000AF78604FF00103184607F10C07BD4602
:1058700080BC704780B483B000AF78604FF0010304
:10588000184607F10C07BD4680BC704780B483B052
:1058900000AF0346FB714FF46143CEF2000397F96A
:1058A00007204FEA5212F97901F01F014FF0010071
:1058B00000FA01F143F8221007F10C07BD4680BC45
:1058C000704700BF80B483B000AF0346FB714FF454
:1058D0006143CEF2000397F907204FEA5212F9799B
:1058E00001F01F014FF0010000FA01F102F1600226
:1058F00043F8221007F10C07BD4680BC704700BF7B
:1059000080B500AF40F62873C2F200031B7883F025
:105910000103DBB2002B28D040F62873C2F200034B
:105920004FF001021A704FF480404FF0010104F073
:105930003DF94FF00600FFF7A9FF4FF00700FFF712
:10594000A5FF4FF00800FFF7A1FF4FF00900FFF798
:105950009DFF4FF00A00FFF799FF4FF01700FFF788
:1059600095FF4FF02800FFF791FF80BD80B582B012
:1059700000AF786079807A703B707B687A881A8093
:105980007B687A781A727B683A785A72786800F085
:1059900029F8B7F90230184600F036F902467B685C
:1059A0005A617B6803F10C03184603F019FF7B680A
:1059B0005B891A467B68DA607B684FF002025A7492
:1059C0007B684FF000021A747B684FF000021A7671
:1059D0007B684FF000025A767B68184607F108078B
:1059E000BD4680BD80B483B000AF78607B681B7A11
:1059F0001A467B681B889BB203F00F03D318102B49
:105A00000CDD7B681B889BB203F00F034FF6FF721F
:105A100002FA03F39AB27B685A8117E07B681B7A1B
:105A2000C3F110034FF6FF7242FA03F39AB27B6898
:105A30005A817B685B891A467B681B889BB203F09E
:105A40000F0302FA03F39AB27B685A8107F10C073D
:105A5000BD4680BC704700BF80B582B000AF7860A3
:105A60007B684FF001025A767B685B681B6803F124
:105A700030031B687A685268104698474FF470529A
:105A8000C4F201027B681B8819B24FF00F03C8F201
:105A900000030B40002B05DA03F1FF3363F00F0323
:105AA00003F101039BB21BB24FF0010101FA03F3B2
:105AB000536107F10807BD4680BD00BF80B485B0C3
:105AC00000AF78604FF00003FB6003E0FB6803F178
:105AD0000103FB607B684FEA53037B607B68002B0C
