:020000040800F2
:10000000000002201155000809B1000811B10008D4
:1000100035B100083DB1000845B1000800000000FE
:100020000000000000000000000000009DA8000883
:100030007D55000800000000B1A80008E9AC0008E8
:100040007D5500087D5500087D5500087D55000848
:100050007D5500087D550008316100085D6100088C
:1000600089610008B5610008E16100087D5500085C
:10007000857A00087D550008717900087D550008D3
:10008000297A0008157900087D5500087D5500087B
:100090007D5500087D5500087D5500080D6200085B
:1000A0007D5500087D550008D5AE00087D55000837
:1000B0007D5500087D5500087D5500087D550008D8
:1000C0007D5500087D5500087D5500087D550008C8
:1000D0007D55000829780008417800085978000803
:1000E000856200087D5500087D5500087D55000893
:1000F0007D5500087D5500087D5500087D55000898
:100100007D5500087D550008FDA900087D550008B3
:1001100071780008897800087D5500087D55000831
:100120007D5500087D5500087D5500087D55000867
:100130007D5500087D5500087D5500087D55000857
:100140007D5500087D5500087D5500087D55000847
:10015000CD7900087D550008B9780008A17800081D
:100160007D5500087D5500087D5500087D55000827
:100170007D5500087D5500087D5500087D55000817
:0C0180007D5500087D55000800000008B7
:1001900081F0004102E000BF83F0004330B54FEA38
:1001A00041044FEA430594EA050F08BF90EA020FA5
:1001B0001FBF54EA000C55EA020C7FEA645C7FEA38
:1001C000655C00F0E2804FEA5454D4EB5555B8BF5B
:1001D0006D420CDD2C4480EA020281EA030382EACC
:1001E000000083EA010180EA020281EA0303362D5E
:1001F00088BF30BD11F0004F4FEA01314FF4801C31
:100200004CEA113102D0404261EB410113F0004F42
:100210004FEA03334CEA133302D0524263EB4303F9
:1002200094EA050F00F0A780A4F10104D5F1200E97
:100230000DDB02FA0EFC22FA05F2801841F10001F2
:1002400003FA0EF2801843FA05F359410EE0A5F1C6
:1002500020050EF1200E012A03FA0EFC28BF4CF0F7
:10026000020C43FA05F3C01851EBE37101F00045AD
:1002700007D54FF0000EDCF1000C7EEB00006EEBBA
:100280000101B1F5801F1BD3B1F5001F0CD3490844
:100290005FEA30004FEA3C0C04F101044FEA44529B
:1002A00012F5800F80F09A80BCF1004F08BF5FEA22
:1002B000500C50F1000041EB045141EA050130BD02
:1002C0005FEA4C0C404141EB010111F4801FA4F1A5
:1002D0000104E9D191F0000F04BF01460020B1FAFA
:1002E00081F308BF2033A3F10B03B3F120020CDA32
:1002F0000C3208DD02F1140CC2F10C0201FA0CF010
:1003000021FA02F10CE002F11402D8BFC2F1200C74
:1003100001FA02F120FA0CFCDCBF41EA0C0190402A
:10032000E41AA2BF01EB0451294330BD6FEA040473
:100330001F3C1CDA0C340EDC04F11404C4F120025E
:1003400020FA04F001FA02F340EA030021FA04F370
:1003500045EA030130BDC4F10C04C4F1200220FAC7
:1003600002F001FA04F340EA0300294630BD21FA05
:1003700004F0294630BD94F0000F83F4801306BFCB
:1003800081F480110134013D4EE77FEA645C18BFBF
:100390007FEA655C29D094EA050F08BF90EA020F56
:1003A00005D054EA000C04BF1946104630BD91EA4E
:1003B000030F1EBF0021002030BD5FEA545C05D151
:1003C0004000494128BF41F0004130BD14F5800490
:1003D0003CBF01F5801130BD01F0004545F0FE4104
:1003E00041F470014FF0000030BD7FEA645C1ABF39
:1003F000194610467FEA655C1CBF0B46024650EA70
:10040000013406BF52EA033591EA030F41F400219B
:1004100030BD00BF90F0000F04BF0021704730B521
:100420004FF4806404F132044FF000054FF00001F6
:1004300050E700BF90F0000F04BF0021704730B5B7
:100440004FF4806404F1320410F0004548BF40428C
:100450004FF000013EE700BF42004FEAE2014FEAE1
:1004600031014FEA02701FBF12F07F4393F07F4FBC
:1004700081F06051704792F0000F14BF93F07F4FEE
:10048000704730B54FF4607401F0004521F0004131
:1004900020E700BF50EA010208BF704730B54FF0B7
:1004A00000050AE050EA010208BF704730B511F0BC
:1004B000004502D5404261EB41014FF4806404F1F4
:1004C00032045FEA915C3FF4DCAE4FF003025FEA76
:1004D000DC0C18BF03325FEADC0C18BF033202EBFE
:1004E000DC02C2F1200300FA03FC20FA02F001FA58
:1004F00003FE40EA0E0021FA02F11444C1E600BFF7
:1005000070B54FF0FF0C4CF4E06C1CEA11541DBFA9
:100510001CEA135594EA0C0F95EA0C0F00F0DEF874
:100520002C4481EA030621EA4C5123EA4C5350EA59
:10053000013518BF52EA033541F4801143F48013AA
:1005400038D0A0FB02CE4FF00005E1FB02E506F03B
:100550000042E0FB03E54FF00006E1FB03569CF090
:10056000000F18BF4EF0010EA4F1FF04B6F5007F96
:1005700064F5407404D25FEA4E0E6D4146EB060608
:1005800042EAC62141EA55514FEAC52040EA5E5091
:100590004FEACE2EB4F1FD0C88BFBCF5E06F1ED83B
:1005A000BEF1004F08BF5FEA500E50F1000041EB72
:1005B000045170BD06F0004646EA010140EA02001F
:1005C00081EA0301B4EB5C04C2BFD4EB0C0541EA41
:1005D000045170BD41F480114FF0000E013C00F356
:1005E000AB8014F1360FDEBF002001F0004170BD7A
:1005F000C4F10004203C35DA0C341BDC04F1140493
:10060000C4F1200500FA05F320FA04F001FA05F21E
:1006100040EA020001F0004221F0004110EBD370EB
:1006200021FA04F642EB06015EEA430E08BF20EA17
:10063000D37070BDC4F10C04C4F1200500FA04F3BA
:1006400020FA05F001FA04F240EA020001F000414C
:1006500010EBD37041F100015EEA430E08BF20EABF
:10066000D37070BDC4F1200500FA05F24EEA020E07
:1006700020FA04F301FA05F243EA020321FA04F036
:1006800001F0004121FA04F220EA020000EBD370ED
:100690005EEA430E08BF20EAD37070BD94F0000FED
:1006A0000FD101F00046400041EB010111F4801F21
:1006B00008BF013CF7D041EA060195F0000F18BFD2
:1006C000704703F00046520043EB030313F4801F0E
:1006D00008BF013DF7D043EA0603704794EA0C0FC8
:1006E0000CEA135518BF95EA0C0F0CD050EA4106DE
:1006F00018BF52EA4306D1D181EA030101F000415B
:100700004FF0000070BD50EA410606BF1046194682
:1007100052EA430619D094EA0C0F02D150EA01368E
:1007200013D195EA0C0F05D152EA03361CBF1046CF
:1007300019460AD181EA030101F0004141F0FE416E
:1007400041F470014FF0000070BD41F0FE4141F4F2
:10075000780170BD70B54FF0FF0C4CF4E06C1CEAF2
:1007600011541DBF1CEA135594EA0C0F95EA0C0FA7
:1007700000F0A7F8A4EB050481EA030E52EA033562
:100780004FEA013100F088804FEA03334FF0805583
:1007900045EA131343EA12634FEA022245EA1115B0
:1007A00045EA10654FEA00260EF000419D4208BF61
:1007B000964244F1FD0404F5407402D25B084FEA0E
:1007C0003202B61A65EB03055B084FEA32024FF4BA
:1007D00080104FF4002CB6EB020E75EB030E22BF17
:1007E000B61A754640EA0C005B084FEA3202B6EBD7
:1007F000020E75EB030E22BFB61A754640EA5C0086
:100800005B084FEA3202B6EB020E75EB030E22BF15
:10081000B61A754640EA9C005B084FEA3202B6EB16
:10082000020E75EB030E22BFB61A754640EADC00D5
:1008300055EA060E18D04FEA051545EA16754FEA37
:1008400006164FEAC30343EA52734FEAC2025FEA55
:100850001C1CC0D111F4801F0BD141EA00014FF0E4
:1008600000004FF0004CB6E711F4801F04BF0143B5
:100870000020B4F1FD0C88BFBCF5E06F3FF6AFAED1
:10088000B5EB030C04BFB6EB020C5FEA500C50F161
:10089000000041EB045170BD0EF0004E4EEA1131E4
:1008A00014EB5C04C2BFD4EB0C0541EA045170BDEB
:1008B00041F480114FF0000E013C90E645EA060E2F
:1008C0008DE60CEA135594EA0C0F08BF95EA0C0F5D
:1008D0003FF43BAF94EA0C0F0AD150EA01347FF4A5
:1008E00034AF95EA0C0F7FF425AF104619462CE77C
:1008F00095EA0C0F06D152EA03353FF4FDAE1046DF
:10090000194622E750EA410618BF52EA43067FF42F
:10091000C5AE50EA41047FF40DAF52EA43057FF4BF
:10092000EBAE12E74FF0FF3C06E000BF4FF0010CCA
:1009300002E000BF4FF0010C4DF804CD4FEA410C2E
:100940007FEA6C5C4FEA430C18BF7FEA6C5C1BD0FB
:1009500001B050EA410C0CBF52EA430C91EA030F7C
:1009600002BF90EA020F0020704710F1000F91EAD9
:10097000030F58BF994208BF90422CBFD8176FEAA7
:10098000E37040F0010070474FEA410C7FEA6C5C75
:1009900002D150EA013C07D14FEA430C7FEA6C5C7C
:1009A000D6D152EA033CD3D05DF8040B704700BFA8
:1009B0008446104662468C461946634600E000BFF6
:1009C00001B5FFF7B7FF002848BF10F1000F01BDC8
:1009D0004DF808EDFFF7F4FF0CBF012000205DF893
:1009E00008FB00BF4DF808EDFFF7EAFF34BF012018
:1009F00000205DF808FB00BF4DF808EDFFF7E0FFB1
:100A000094BF012000205DF808FB00BF4DF808ED01
:100A1000FFF7CEFF94BF012000205DF808FB00BF68
:100A20004DF808EDFFF7C4FF34BF012000205DF84A
:100A300008FB00BF4FEA410212F5001215D211D592
:100A40006FF47873B3EB625212D94FEAC12343F0CB
:100A5000004343EA505311F0004F23FA02F018BF4D
:100A6000404270474FF00000704750EA013005D116
:100A700011F0004008BF6FF0004070474FF00000D9
:100A8000704700BF4A0011D212F5001211D20DD5E5
:100A90006FF47873B3EB62520ED44FEAC12343F084
:100AA000004343EA505323FA02F070474FF000002E
:100AB000704750EA013002D14FF0FF3070474FF0DD
:100AC000000070474FEA4102B2F1E04324BFB3F5A2
:100AD000001CDCF1FE5C0DD901F0004C4FEAC002B5
:100AE0004CEA5070B2F1004F40EB830008BF20F099
:100AF0000100704711F0804F21D113F13872BCBF53
:100B000001F00040704741F480114FEA5252C2F1A7
:100B10001802C2F1200C10FA0CF320FA02F018BFF0
:100B200040F001004FEAC1234FEAD32303FA0CFC43
:100B300040EA0C0023FA02F34FEA4303CCE77FEAD2
:100B4000625307D150EA01331EBF4FF0FE4040F41C
:100B50004000704701F0004040F0FE4040F40000CB
:100B6000704700BF73B96AB9002908BF0028BCBF2D
:100B700000204FF00041C4BF6FF000414FF0FF3044
:100B800000F08AB882B0EC462DE9005000F058F829
:100B9000DDF804E002B00CBC704700BF4BB942B9AD
:100BA000002908BF002802D04FF0FF31084600F0AE
:100BB00073B882B0EC462DE9005000F057F8DDF82C
:100BC00004E002B00CBC704738B500220023054693
:100BD0000C46FFF707FF28B928462146BDE83840F4
:100BE00000F00CB8284604F1004100F007F842423A
:100BF00061EB41031046194638BD00BF002370B5B4
:100C00000022C3F6F05304460D46FFF779FCFFF7C8
:100C100039FF0646FFF7FEFB00230022C4F2F01363
:100C2000FFF76EFC02460B4620462946FFF7B4FA52
:100C3000FFF728FF002202431046314670BD00BF77
:100C4000F8B5164604460D461F4600F027F806FB89
:100C500001F300FB0737A6FB0023FB18A21A65EB84
:100C60000303069CC4E90023F8BD00BFF8B516468F
:100C700004460D461F4600F06FF900FB07F7A0FB86
:100C8000062306FB0177FB18A21A65EB0303069CFB
:100C9000C4E90023F8BD00BF704700BF00292DE95B
:100CA000F00F1D46C0F29D800024002DC0F29480FC
:100CB00080460F4694461E46E3BB8A4255D9B2FA97
:100CC00082F747B1C7F1200520FA05F601FA07F1CE
:100CD000BA403143B840170CB1FBF7F6030C1FFACA
:100CE00082FC07FB16110CFB06F543EA01439D420B
:100CF00008D9711E9B1880F013819D4240F210812B
:100D0000023E9B18591BB1FBF7F507FB151380B288
:100D10000CFB05FC40EA03418C4507D96B1E8A1881
:100D200080F00081944540F2FD80023D45EA064195
:100D3000002503E08B420CD9002529460A462B46A4
:100D400014B1524263EB430310461946BDE8F00F5D
:100D50007047B3FA83F5002D40F087808B4201D3B2
:100D60008242EAD800250121E8E712B90126B6FB44
:100D7000F2F2B2FA82F6002E39D18E1A130C1FFA53
:100D800082FC0125B6FBF3F703FB17614FEA10491C
:100D90000CFB07F849EA0146B04506D9791EB6189A
:100DA00002D2B04500F2D3800F46C8EB0606B6FB70
:100DB000F3F103FB116380B20CFB01FC40EA034337
:100DC0009C4506D94E1E9A1802D2944500F2C28064
:100DD000314641EA0741B1E7E443524263EB430342
:100DE00066E7404261EB41014FF0FF345DE7B240FE
:100DF000C6F1200921FA09F720FA09F5130C01FAC6
:100E000006F1B7FBF3F845EA01091FFA82FC03FB80
:100E100018774FEA19410CFB08F541EA0747B04043
:100E2000BD420AD9BF1808F1FF3680F08E80BD425E
:100E300040F28B80A8F10208BF18791BB1FBF3F5D3
:100E400003FB15171FFA89F90CFB05F649EA074160
:100E50008E4206D96F1E891871D28E426FD9023D1B
:100E600089188E1B45EA08458CE7C5F1200122FA56
:100E700001F306FA05F61E4327FA01F24FEA164976
:100E800007FA05F720FA01F1B2FBF9F80F433B0C22
:100E90001FFA86FA09FB18220AFB08FB43EA024202
:100EA00093450CFA05FC08D9921908F1FF314AD292
:100EB000934548D9A8F102089219CBEB0203B3FB82
:100EC000F9F109FB1132BFB20AFB01FA47EA02430A
:100ED0009A4506D94A1E9B1933D29A4531D902390F
:100EE0009B1941EA08410F0C1FFA8CF808FB07F622
:100EF0008AB24FEA1C4C08FB02F80CFB026202EBC0
:100F000018420CFB07FC964288BF0CF5803CCAEBEC
:100F100003030CEB124C63450ED305D000250DE7FF
:100F20000E46EFE61D4601E71FFA88F800FA05F0C5
:100F300008EB0245A842F1D201390025FEE63D4604
:100F40008FE71146CDE78846B7E7B04675E7023F21
:100F5000B6182AE702393CE72DE9F00714460546A2
:100F60000E46002B3DD18A4249D9B2FA82F747B1E9
:100F7000C7F1200120FA01F206FA07F6BC40164339
:100F8000BD40220CB6FBF2F02F0CA1B202FB1066A2
:100F900001FB00F347EA0646B34208D9471E36195B
:100FA00080F0F880B34240F2F58002383619F61A24
:100FB000B6FBF2F302FB1362ADB201FB03F145EAAB
:100FC0000242914207D95E1E121980F0E5809142DB
:100FD00040F2E280023B43EA00400021BDE8F00716
:100FE00070478B4243D8B3FA83F4002C42D18B4232
:100FF00002D3824200F2DF8000210120EEE712B925
:101000000127B7FBF2F4B4FA84F2002A40F088809A
:101010000A1B230CA7B20121B2FBF3F603FB162235
:101020004FEA154C07FB06F04CEA0242904207D902
:10103000121906F1FF3C02D2904200F2CE806646C1
:10104000121AB2FBF3F003FB1023ADB207FB00F75B
:1010500045EA03439F4207D9421E1B1980F09E8038
:101060009F4240F29B80023840EA0640B6E70021EA
:101070000846B3E7C4F1200622FA06F503FA04F3A2
:101080002B434FEA134C21FA06F501FA04F120FA3A
:1010900006F6B5FBFCF746EA010A1FFA83F80CFBDB
:1010A00017554FEA1A4108FB07F941EA0545A945DA
:1010B00002FA04F203D97E1EED187FD33746C9EB3E
:1010C0000501B1FBFCF60CFB16151FFA8AFA08FBAA
:1010D00006F84AEA0541884503D9751EC91873D335
:1010E0002E4646EA0746370C1FFA82FC0CFB07F532
:1010F000120CB3B20CFB03FC02FB035303EB1C43C7
:1011000002FB07F29D4288BF02F58032C8EB010165
:1011100002EB134291424BD342D0304600215DE7AF
:101120009440C2F1200521FA05F6230C20FA05F7B8
:1011300001FA02F1B6FBF3FC39430D0CA7B203FB35
:101140001C6645EA064607FB0CF8B04500FA02F5B6
:1011500008D936190CF1FF303DD2B0453BD9ACF17E
:10116000020C3619C8EB0602B2FBF3F003FB1026A3
:101170008AB242EA064207FB00F1914206D9461EB6
:10118000121926D2914224D902381219521A40EA71
:101190000C4141E738460AE733461CE7104663E74F
:1011A0001FFA8CFC00FA04F00CEB03439842B4D213
:1011B000701E002112E7214620460FE7A9457FF661
:1011C0007DAF023FED187AE7884589D9023EC918FC
:1011D00087E73046DAE78446C4E7023E12192FE774
:1011E00080B483B000AF786007F10C07BD4680BCC7
:1011F000704700BF80B582B000AF78607B680E4A50
:101200001A6044F60C40C0F6010002F0CDFF7B6886
:1012100003F10403184603F095F94FF0000303F0BF
:101220000103002B02D0786803F0C2F97B681846EE
:1012300007F10807BD4680BD1859010880B582B086
:1012400000AF78607868FFF7D5FF786803F0B0F9F1
:101250007B68184607F10807BD4680BD80B582B09F
:1012600000AF78607B680E4A1A6044F61C40C0F6F6
:10127000010002F099FF7B6803F10403184603F0B4
:1012800061F94FF0000303F00103002B02D07868EE
:1012900003F08EF97B68184607F10807BD4680BD4C
:1012A0008059010880B582B000AF78607868FFF798
:1012B000D5FF786803F07CF97B68184607F10807CA
:1012C000BD4680BD80B582B000AF78607B68084ABB
:1012D0001A604FF0000303F00103002B02D078687E
:1012E00003F066F97B68184607F10807BD4680BD24
:1012F0000059010880B582B000AF78607868FFF7C8
:10130000E1FF786803F054F97B68184607F1080795
:10131000BD4680BD80B584B000AFF860B9607A602A
:101320003B6044F63040C0F6010002F03DFF4FF054
:101330000003184607F11007BD4680BDB0B582B066
:1013400000AF7860396078684FF0010104F04EFD1D
:1013500003F028FA04460D4639680A464FF00003A8
:1013600044F24021C0F20F0101FB03F04FF00001F5
:1013700001FB02F1401844F24021C0F20F01A2FB30
:101380000123C1180B46121943EB050310461946F9
:101390004FF000020AF060FD78684FF0000104F0A1
:1013A00025FD07F10807BD46B0BD00BF80B584B07C
:1013B00000AF786044F6B843C0F6010307F10C02B1
:1013C0001B88138044F6BC43C0F6010307F10802F2
:1013D0001B88138007F10C0378684FF06B011A46E5
:1013E0004FF0020305F090F907F1080378684FF019
:1013F0006B011A464FF0020305F086F907F110075A
:10140000BD4680BD80B586B000AF786044F6C0436D
:10141000C0F6010307F114021B8813804FF021036B
:101420003B744FF000037B744FF022033B734FF08B
:1014300000037B7307F1140378684FF01E011A460E
:101440004FF0020305F060F907F1100378684FF0E0
:101450001E011A464FF0020305F056F907F10C037E
:1014600078684FF01E011A464FF0020305F04CF960
:1014700007F11807BD4680BD80B584B000AF786025
:101480003960386803F06EF80346FB60FB6803F1CF
:1014900001034FF0010019460CF03AFE0346BB6011
:1014A000B86844F6C441C0F601013A680DF0CCF9C1
:1014B0007B681B6803F140031B687868B968FA68A9
:1014C0009847B8680CF070FE07F11007BD4680BD64
:1014D00080B586B002AF786013460A46FA70BB70DA
:1014E000BB783B72FA7807F1080307F10C01009111
:1014F0004FF00201019140F6B010C2F20000114617
:101500001A464FF0010305F037F97B7B4FEA0323BE
:101510009AB23B7B1343FB817B68FA891A8007F1FF
:101520001007BD4680BD00BF80B588B002AF7860AF
:1015300013460A46FA70BB70BB783B72FA7807F123
:10154000080307F10C0100914FF00601019140F6EC
:10155000B010C2F2000011461A464FF0010305F028
:101560000BF97B7B4FEA03239AB23B7B1343FB824D
:10157000FB7B4FEA03239AB2BB7B1343BB827B7C8A
:101580004FEA03239AB23B7C13437B827B68FA8A3F
:101590001A807B68BA8A5A807B687A8A9A8007F1B7
:1015A0001807BD4680BD00BFB0B58CB000AF7860F5
:1015B000F970BA703B804FF00003FB6250E007F116
:1015C0000801FA78BB78084611461A46FFF7ACFFC7
:1015D000D7E904013C8922B24FEAE273121843EBC7
:1015E0000103C7E90423D7E906017C8922B24FEA47
:1015F000E273121843EB0103C7E90623D7E9080198
:10160000BC8922B24FEAE273121843EB0103C7E927
:10161000082303F0C7F804460D463A884FF000034C
:1016200044F24021C0F20F0101FB03F04FF0000132
:1016300001FB02F1401844F24021C0F20F01A2FB6D
:101640000123C1180B46121943EB05031046194636
:101650004FF000020AF000FCFB6A03F10103FB6299
:10166000FA6A3B6C9A422CBF00230123DBB2002BA9
:10167000A5D1D7E904237968C1E90023D7E9062376
:101680007968C1E90223D7E908237968C1E904230D
:1016900007F13007BD46B0BD80B596B002AF7860A7
:1016A00097484FF0FA01FFF749FE4FF000024FF064
:1016B0000003C7E90E234FF000024FF00003C7E913
:1016C00010234FF000024FF00003C7E912234FF040
:1016D00000024FF00003C7E908234FF000024FF06B
:1016E0000003C7E90A234FF000024FF00003C7E9E7
:1016F0000C234FF000024FF00003C7E902234FF024
:1017000000024FF00003C7E904234FF000024FF03E
:101710000003C7E9062307F138034FF06402009283
:1017200018464FF06B014FF028024FF03203FFF7DD
:101730003BFF73484FF4FA71FFF700FE03F032F8F5
:101740006BA3D3E90023121843EB0103104619469B
:101750004FF000020AF080FB69484FF4FA71FFF77E
:10176000EDFD07F120034FF06402009218464FF0A0
:101770006B014FF028024FF03203FFF715FF60486E
:101780004FF4FA71FFF7DAFD03F00CF85AA3D3E92E
:101790000023121843EB0103104619464FF00002D4
:1017A0000AF05AFB56484FF4FA71FFF7C7FD07F1EC
:1017B00008034FF06402009218464FF06B014FF09F
:1017C00028024FF03203FFF7EFFE4D484FF4FA7155
:1017D000FFF7B4FD02F0E6FF45A3D3E9002312189A
:1017E00043EB0103104619464FF000020AF034FBA8
:1017F000D7E90E01D7E90223121843EB0103104683
:101800001946FEF74FFE02460B46104619464FF0AA
:1018100000024FF00003C4F26903FEF79BFF02468B
:101820000B4610461946FFF705F903469AB27B6846
:101830001A80D7E91001D7E90A23121843EB0103F4
:1018400010461946FEF72EFE02460B461046194674
:101850004FF000024FF00003C4F26903FEF77AFF75
:1018600002460B4610461946FFF7E4F803469AB2C3
:101870007B685A80D7E90601D7E90C23121843EB9D
:10188000010310461946FEF70DFE02460B461046B0
:1018900019464FF000024FF00003C4F26903FEF74F
:1018A00059FF02460B4610461946FFF7C3F8034698
:1018B0009AB27B689A8012484FF4FA71FFF73EFDA6
:1018C00002F070FF0AA3D3E90023121843EB0103CF
:1018D000104619464FF000020AF0BEFA08484FF4CD
:1018E000FA71FFF72BFD07F15007BD4680BD00BF21
:1018F0000065CD1D0000000000CA9A3B00000000FA
:1019000078090020AFF3008080B596B002AF786010
:101910008D484FF4FA71FFF711FD4FF000024FF0C0
:101920000003C7E90E234FF000024FF00003C7E9A0
:1019300010234FF000024FF00003C7E912234FF0CD
:1019400000024FF00003C7E908234FF000024FF0F8
:101950000003C7E90A234FF000024FF00003C7E974
:101960000C234FF000024FF00003C7E902234FF0B1
:1019700000024FF00003C7E904234FF000024FF0CC
:101980000003C7E9062307F138034FF06402009211
:1019900018464FF06B014FF018024FF01403FFF799
:1019A00003FE69484FF4FA71FFF7C8FC02F0FAFE33
:1019B00063A3D3E90023121843EB01031046194631
:1019C0004FF000020AF048FA5F484FF4FA71FFF74F
:1019D000B5FC07F120034FF06402009218464FF067
:1019E0006B014FF018024FF01403FFF7DDFD56486E
:1019F0004FF4FA71FFF7A2FC02F0D4FE50A3D3E932
:101A00000023121843EB0103104619464FF0000261
:101A10000AF022FA4C484FF4FA71FFF78FFC07F1F5
:101A200008034FF06402009218464FF06B014FF02C
:101A300018024FF01403FFF7B7FD43484FF4FA7153
:101A4000FFF77CFC02F0AEFE3DA3D3E900231218A1
:101A500043EB0103104619464FF000020AF0FCF96F
:101A6000D7E9082310461946FEF71CFD02460B462F
:101A7000104619464FF000024FF00003C4F259031C
:101A8000FEF768FE02460B4610461946FEF7D2FFE7
:101A900003469AB27B681A80D7E904231046194698
:101AA000FEF700FD02460B46104619464FF00002B5
:101AB0004FF00003C4F25903FEF74CFE02460B46FA
:101AC00010461946FEF7B6FF03469AB27B685A8065
:101AD000D7E9122310461946FEF7E4FC02460B46EE
:101AE000104619464FF000024FF00003C4F25903AC
:101AF000FEF730FE02460B4610461946FEF79AFFE7
:101B000003469AB27B689A800F484FF4FA71FFF748
:101B100015FC02F047FE0AA3D3E90023121843EB99
:101B20000103104619464FF000020AF095F90648E5
:101B30004FF4FA71FFF702FC07F15007BD4680BD74
:101B40000065CD1D0000000078090020AFF3008083
:101B5000B0B588B000AF78608B484FF4FA71FFF7EA
:101B6000EDFB02F01FFEC7E9060107F1120318465C
:101B70004FF01E014FF02C02FFF7AAFCBA8A7B8AB5
:101B800012B21BB29A4202DD7B8ABB8207E0FA8A5C
:101B90007B8A12B21BB29A4201DA7B8AFB8202F084
:101BA00001FE02460B46D7E9064573A1D1E90001C3
:101BB000001941EB0501904271EB030CB4BF002307
:101BC0000123DBB2002BD0D1BA8A7B681A81FA8A52
:101BD0007B685A816C484FF4FA71FFF7AFFB02F053
:101BE000E1FD67A3D3E90023121843EB010310467C
:101BF00019464FF000020AF02FF963484FF4FA71CA
:101C0000FFF79CFB02F0CEFDC7E9060107F11003C8
:101C100018464FF01E014FF02802FFF759FCBA8A10
:101C20003B8A12B21BB29A4202DD3B8ABB8207E0BA
:101C3000FA8A3B8A12B21BB29A4201DA3B8AFB82D1
:101C400002F0B0FD02460B46D7E906454AA1D1E9AC
:101C50000001001941EB0501904271EB030CB4BF88
:101C600000230123DBB2002BD0D1BA8A7B681A8013
:101C7000FA8A7B685A8044484FF4FA71FFF75EFB9A
:101C800002F090FD3EA3D3E90023121843EB0103B9
:101C9000104619464FF000020AF0DEF83A484FF4B9
:101CA000FA71FFF74BFB02F07DFDC7E9060107F172
:101CB0000E0318464FF01E014FF02A02FFF708FCF2
:101CC000BA8AFB8912B21BB29A4202DDFB89BB823F
:101CD00007E0FA8AFB8912B21BB29A4201DAFB8949
:101CE000FB8202F05FFD02460B46D7E9064522A1C2
:101CF000D1E90001001941EB0501904271EB030CA1
:101D0000B4BF00230123DBB2002BD0D1BA8A7B6899
:101D10009A80FA8A7B68DA801B484FF4FA71FFF7E1
:101D20000DFB02F03FFD16A3D3E90023121843EB8D
:101D30000103104619464FF000020AF08DF81248D0
:101D40004FF4FA71FFF7FAFA02F02CFD0CA3D3E975
:101D50000023121843EB0103104619464FF000020E
:101D60000AF07AF808484FF4FA71FFF7E7FA07F13A
:101D70002007BD46B0BD00BF0094357700000000CD
:101D80000065CD1D0000000078090020AFF3008041
:101D9000B0B584B000AFF860B9607A603B60386875
:101DA000FEF75AFB04460D46386AFEF755FB02461D
:101DB0000B46204629460BF04DFD02460B461046C9
:101DC0001946FEF77FFE0246BB681A60D7ED017A1E
:101DD000F1EE677A17EE903A1846FEF73DFB04469F
:101DE0000D4697ED007AD7ED007A27EE277AD7EDEA
:101DF000086AD7ED087A66EEA77A77EE277A17EEAB
:101E0000900AFEF729FB02460B46104619460BF0D6
:101E100023FD02460B46204629460BF01BFD0246D9
:101E20000B4610461946FEF74DFE0246FB681A6047
:101E300007F11007BD46B0BDB0B582B000AF786005
:101E400040F68053C2F200031B681846FEF704FBFD
:101E500004460D467868FEF7FFFA02460B46104628
:101E6000194611A3D3E90023FEF74AFB02460B46AD
:101E700020462946FEF792F902460B4610461946BF
:101E8000FEF720FE024640F68053C2F200031A60BD
:101E900040F68053C2F200031B68184607F108079A
:101EA000BD46B0BDAFF300809A9999999999A93F21
:101EB00080B582B000AF78607B680A4A1A607B68A0
:101EC0001846FFF7CBF94FF0000303F00103002B96
:101ED00002D0786802F06CFB7B68184607F10807AF
:101EE000BD4680BD8858010880B582B000AF7860DB
:101EF0007868FFF7DDFF786802F05AFB7B681846C8
:101F000007F10807BD4680BD80B582B000AF78609C
:101F10007B68184644F6C841C0F601014FF06402E0
:101F20004FF4FA6309F020FE7B6803F15003184672
:101F300040F6F011C2F2000144F6D842C0F60102A8
:101F400001F0EEFB7B680A4A1A607B68094A1A6551
:101F50007B684FF06402C3F884207B684FF0000276
:101F600083F8B8207B68184607F10807BD4680BD96
:101F7000485801086458010880B483B000AF786005
:101F80007B6893F8B830184607F10C07BD4680BC53
:101F9000704700BF80B582B000AF786040F6241073
:101FA000C2F200004FF001014FF001024FF00103B7
:101FB00003F0FCFD3F484FF001014FF001024FF0EC
:101FC000010303F0F3FD40F60810C2F200004FF0E9
:101FD00000014FF001024FF0000303F0E7FD40F66F
:101FE000B010C2F200004FF4D451C0F2060104F068
:101FF00015FA40F6B010C2F20000FFF7D7F940F62C
:102000009410C2F2000044F60051C0F60101FFF73F
:1020100033FA40F6B010C2F20000FFF7F3F940F6D1
:102020009410C2F2000044F64451C0F60101FFF7DB
:1020300023FA7B684FF00002A3F888207B684FF0FA
:102040000002A3F88A207B684FF00002A3F88C20DE
:102050007B684FF00002A3F8A0207B684FF00002DD
:10206000A3F8A2207B684FF00002A3F8A4207B68AD
:102070004FF00002A3F8A6207B684FF00002A3F8FF
:10208000A8207B684FF00002A3F8AA207B684FF0DD
:102090000002A3F894207B684FF00002A3F896207A
:1020A0007B684FF00002A3F8982007F10807BD46AF
:1020B00080BD00BF7809002080B485B000AF786093
:1020C00039603B68FB60FB681B78492B08D1FB68D3
:1020D000D3ED017AFCEEE77A7B68C3ED217A00BF8D
:1020E00007F11407BD4680BC704700BFA0F1500047
:1020F000E2E700BF000000002DE9B04F2DED048B9A
:10210000D6B00AAF07F10403186007F104031B6897
:1021100093F8B83083F00103DBB2002B00F0548257
:1021200000E000BF40F60810C2F2000003F0B6FE67
:102130000346012B14BF00230123DBB2002B00F068
:10214000C6817D484FF4C871FFF7F8F802F02AFB0A
:1021500077A3D3E90023121843EB01031046194675
:102160004FF0000209F078FE40F20003C2F20003D3
:102170001B78022B70D0032B00F0E680012B40F07F
:10218000908107F104031B6803F188031846FFF7E9
:1021900083FA40F69410C2F2000044F67451C0F67F
:1021A0000101FFF769F944F6B053C0F60103C7F81F
:1021B000243107F104031B68B3F888301BB207EE23
:1021C000903AB8EEE77ADFED5D7A67EE277A17EEA0
:1021D000900AFEF741F904460D4607F104031B6817
:1021E000B3F88A301BB207EE903AB8EEE77ADFED2B
:1021F000537A67EE277A17EE900AFEF72DF980469C
:10220000894607F104031B68B3F88C301BB207EE54
:10221000903AB8EEE77ADFED497A67EE277A17EE63
:10222000900AFEF719F902460B4607F10C01CDE9B9
:102230000089CDE902230846D7F8241122462B460F
:102240000CF002FB07F10C0340F69410C2F2000000
:102250001946FFF711F924E107F104031B6803F1A4
:1022600094031846FFF750FB40F69410C2F20000AA
:1022700044F6EC51C0F60101FFF7FEF844F61C638A
:10228000C0F60103C7F8203107F104031B68B3F857
:1022900094301BB207EE903AB8EEE77ADFED287A79
:1022A00067EE277A17EE900AFEF7D6F804460D4639
:1022B00007F104031B68B3F896301BB207EE903A9F
:1022C000B8EEE77ADFED1E7A67EE277A17EE900A0E
:1022D000FEF7C2F88046894607F104031B68B3F88D
:1022E00098301BB207EE903AB8EEE77ADFED147A39
:1022F00067EE277A17EE900AFEF7AEF802460B4615
:1023000007F10C01CDE90089CDE902230846D7F891
:10231000201122462B460CF097FA07F10C0340F6E9
:102320009410C2F200001946FFF7A6F8B9E000BF0A
:102330000065CD1D000000007809002000018038F4
:10234000F4017A3D0001003907F104031B6803F131
:10235000A0031846FFF7FCFB40F69410C2F2000001
:1023600044F66061C0F60101FFF786F844F6946315
:10237000C0F60103C7F81C3107F104031B68B3F86A
:10238000A2301BB207EE903AB8EEE77A5FED137A0F
:1023900067EE277A17EE900AFEF75EF804460D46C0
:1023A00007F104031B68B3F8A6301BB207EE903A9E
:1023B000B8EEE77A5FED1D7A67EE277A17EE900A9E
:1023C000FEF74AF841EC190B07F104031B68B3F858
:1023D000AA301BB207EE903AB8EEE77A5FED277AA3
:1023E00067EE277A17EE900AFEF736F841EC180BE5
:1023F00007F104031B68B3F8A0301BB207EE903A54
:10240000B8EEE77A5FED317A67EE277A17EE900A39
:10241000FEF722F882468B4607F104031B68B3F8E7
:10242000A4301BB207EE903AB8EEE77A5FED3B7A44
:1024300067EE277A17EE900AFEF70EF88046894677
:1024400007F104031B68B3F8A8301BB207EE903AFB
:10245000B8EEE77A5FED457A67EE277A17EE900AD5
:10246000FDF7FAFF02460B4607F10C018DED009BCC
:102470008DED028BCDE904ABCDE90689CDE90823CA
:102480000846D7F81C1122462B460CF0DDF907F15F
:102490000C0340F69410C2F200001946FEF7ECFF60
:1024A00000BF40F20003C2F200031B7803F10103F6
:1024B000DAB240F20003C2F200031A7040F20003E5
:1024C000C2F200031B78042B7FF42BAE05E02648F4
:1024D0004FF09601FEF732FF23E640F69410C2F269
:1024E000000044F63471C0F60101FEF7C5FF4FF05D
:1024F0000003C7F82C3117E0D7F82C2113464FEA18
:10250000C3039B1A4FEA830340F62412C2F200026F
:102510009B1818464FF0010103F068FCD7F82C31E6
:1025200003F10103C7F82C31D7F82C31032BCCBFB2
:1025300000230123DBB2002BDED102F033F908A324
:10254000D3E90023121843EB0103104619464FF05C
:10255000000209F081FC4FF00003C7F8283123E0A6
:1025600000CA9A3B00000000780900200001803872
:10257000F4017A3D00010039D7F8282113464FEACB
:10258000C3039B1A4FEA830340F62412C2F20002EF
:102590009B1818464FF0000103F028FCD7F82831AB
:1025A00003F10103C7F82831D7F82831032BCCBF3A
:1025B00000230123DBB2002BDED107F104031B68EB
:1025C0004FF0010283F8B82040F62410C2F2000058
:1025D0004FF4FA71FEF7B2FE4FF00003A7F8143182
:1025E0004FF00003A7F816314FF00003A7F8183199
:1025F00007F58A7318464FF06B014FF02802FEF77B
:1026000093FFB7F814311AB207F104031B68B3F84B
:1026100088301BB2D31A07EE903AB8EEE77A5FED36
:102620002D7A67EE277AC7ED427AB7F816311AB2DB
:1026300007F104031B68B3F88A301BB2D31A07EE04
:10264000903AB8EEE77A5FED377A67EE277AC7ED12
:10265000437AB7F818311AB207F104031B68B3F8CC
:102660008C301BB2D31A07EE903AB8EEE77A5FEDE2
:10267000417A67EE277AC7ED447A07F5847340F60E
:102680001820C2F20000194601F066F84FF000036E
:10269000A7F800314FF00003A7F802314FF0000314
:1026A000A7F8043107F5807318464FF06B014FF01F
:1026B0001802FEF739FFB7F800311AB207F1040328
:1026C0001B68B3F894301BB2D31A07EE903AB8EEF9
:1026D000E77A5FED597A67EE277AC7ED3D7AB7F86A
:1026E00002311AB207F104031B68B3F896301BB22B
:1026F000D31A07EE903AB8EEE77A5FED637A67EEA9
:10270000277AC7ED3E7AB7F804311AB207F104030D
:102710001B68B3F898301BB2D31A07EE903AB8EEA4
:10272000E77A5FED6D7A67EE277AC7ED3F7A07F1BA
:10273000F40340F6A820C2F20000194601F00CF89C
:102740004FF00003A7F8EC304FF00003A7F8EE308D
:102750004FF00003A7F8F03007F1EC0318464FF0F4
:102760001E014FF02802FEF7DFFEB7F8EC301AB278
:1027700007F104031B68B3F8A0301BB2D21A07F1AB
:1027800004031B68B3F8A23019B207F104031B68F5
:10279000B3F8A0301BB2CB1A92FBF3F34FEA43031A
:1027A00003F1FF3307EE903AB8EEE77A5FED8F7AE8
:1027B00067EE277AC7ED387AB7F8EE301AB207F12C
:1027C00004031B68B3F8A4301BB2D21A07F1040348
:1027D0001B68B3F8A63019B207F104031B68B3F8FD
:1027E000A4301BB2CB1A92FBF3F34FEA430303F17D
:1027F000FF3307EE903AB8EEE77A5FEDA27A67EE24
:10280000277AC7ED397AB7F8F0301AB207F1040326
:102810001B68B3F8A8301BB2D21A07F104031B6877
:10282000B3F8AA3019B207F104031B68B3F8A83053
:102830001BB2CB1A92FBF3F34FEA430303F1FF33CE
:1028400007EE903AB8EEE77A5FEDB67A67EE277A50
:10285000C7ED3A7A07F1E00340F66020C2F20000CB
:10286000194600F079FF4FF00003A7F8DE3007F1BA
:10287000DE0318464FF06B014FF01502FEF728FEFD
:10288000B7F8DE301BB207EE903AB8EEE77AF3EE17
:10289000007A87EE277AF3EE097A77EE277AC7ED8A
:1028A000367A07F1D80340F6F020C2F2000019464C
:1028B00000F08AFF01F076FF04460D4607F104039D
:1028C0001B68D3F884100A464FF0000344F24021FD
:1028D000C0F20F0101FB03F04FF0000101FB02F118
:1028E000401844F24021C0F20F01A2FB0123C1189D
:1028F0000B46121943EB0503104619464FF0000230
:1029000009F0AAFA01E400BF80B582B000AF786098
:102910007B68184644F6C841C0F601014FF06402D6
:102920004FF4FA6309F020F97B6803F1500318466D
:1029300040F6F011C2F2000144F6D842C0F601029E
:1029400000F0EEFE7B680A4A1A607B68094A1A6545
:102950007B6840F2DC52C3F884207B684FF00002B1
:1029600083F8B0207B68184607F10807BD4680BD94
:10297000085801082458010880B485B000AF786079
:1029800039603B68FB60FB681B78A3F14103132BA4
:1029900023D84FF0010202FA03F245F2C103C0F25C
:1029A00001031340002B0CD102F40023002B14D0A0
:1029B000FB68D3ED017AFCEEE77A7B68C3ED217A00
:1029C0000BE0FB68D3ED017AFCEEE77A17EE903A64
:1029D000DAB27B6883F8B02000BF07F11407BD4668
:1029E00080BC7047A0F15000C6E700BF00000000A7
:1029F0002DE9B043B8B004AF786040F62030C2F2A1
:102A00000000FFF7B9FA0346002B00F004820D48DE
:102A10004FF4FA71FEF792FC7B6893F8B030052B07
:102A200000F2EF8101A252F823F000BF492A00080A
:102A3000492A0008C92A0008CF2B00084F2C00089B
:102A4000A52C00084009002044F66473C0F6010379
:102A5000C7F8CC3007F1AC0340F61820C2F20000F2
:102A6000194600F0E7FED7F8AC301846FDF7F4FC45
:102A700004460D46D7F8B0301846FDF7EDFC804609
:102A80008946D7F8B4301846FDF7E6FC02460B46F7
:102A900007F10801CDE90089CDE902230846D7F8FE
:102AA000CC1022462B460BF0CFFE07F1080340F670
:102AB0009410C2F200001946FEF7DEFC7B6893F822
:102AC000B030002B40F0968144F68C73C0F60103C1
:102AD000C7F8C83007F1A00340F6A820C2F20000F2
:102AE000194600F0A7FED7F8A0301846FDF7B4FC51
:102AF00002460B46104619464FF000024FF40043C1
:102B0000C4F26603FDF7FCFC02460B46104619466C
:102B1000D5A3D3E90023FDF71DFE02460B4614465C
:102B20001D46D7F8A4301846FDF796FC02460B4622
:102B3000104619464FF000024FF40043C4F26603FA
:102B4000FDF7DEFC02460B4610461946C6A3D3E944
:102B50000023FDF7FFFD02460B4690469946D7F845
:102B6000A8301846FDF778FC02460B461046194679
:102B70004FF000024FF40043C4F26603FDF7C0FCBF
:102B800002460B4610461946B7A3D3E90023FDF7CA
:102B9000E1FD02460B4607F10801CDE90089CDE9C8
:102BA00002230846D7F8C81022462B460BF04CFEED
:102BB00007F1080340F69410C2F200001946FEF730
:102BC0005BFC7B6893F8B030002B40F0158144F635
:102BD000BC73C0F60103C7F8C43007F1940340F694
:102BE0006020C2F20000194600F024FED7F89430AD
:102BF0001846FDF731FC04460D46D7F898301846C4
:102C0000FDF72AFC80468946D7F89C301846FDF728
:102C100023FC02460B4607F10801CDE90089CDE906
:102C200002230846D7F8C41022462B460BF00CFEB0
:102C300007F1080340F69410C2F200001946FEF7AF
:102C40001BFC7B6893F8B030002B40F0D78044F633
:102C5000F073C0F60103C7F8C03007F17C0340F6FB
:102C6000F020C2F20000194600F00EFEFB6F18467D
:102C7000FDF7F2FB02460B4607F180010846D7F844
:102C8000C0100BF0E1FD07F1800340F69410C2F292
:102C900000001946FEF7F0FB7B6893F8B030002B7C
:102CA00040F0AE8045F20403C0F60103C7F8BC3023
:102CB0004FF000037B654FF000033B654FF00003CE
:102CC000C7F8B83007F1700340F61820C2F20000D0
:102CD000194600F0AFFD07F1640340F66020C2F230
:102CE0000000194600F0A6FD07F1580340F6A820A1
:102CF000C2F20000194600F09DFD3A6F7B6FBC6F79
:102D000007F1500007F154010094FFF741F83B6EC2
:102D10001846FFF791F8C7F8B8007B6D1846FDF725
:102D20009BFB02460B461046194651A3D3E90023EC
:102D3000FDF7E6FB02460B4610461946FDF7C2FEBC
:102D400003467B653B6D1846FDF786FB02460B4646
:102D50001046194646A3D3E90023FDF7D1FB0246EE
:102D60000B4610461946FDF7ADFE03463B65D7F806
:102D7000B800FDF771FB02460B46104619463CA30E
:102D8000D3E90023FDF7BCFB02460B46104619466B
:102D9000FDF798FE0346C7F8B8307B6D1846FDF77F
:102DA0005BFB04460D463B6D1846FDF755FB804620
:102DB0008946D7F8B800FDF74FFB02460B4607F1EE
:102DC0000801CDE90089CDE902230846D7F8BC10F7
:102DD00022462B460BF038FD07F1080340F694100D
:102DE000C2F200001946FEF747FB7B6893F8B0304B
:102DF000002B06E000BF04E000BF02E000BF00E0DF
:102E000000BF40F69410C2F2000045F22801C0F65F
:102E10000101FEF731FB01F0C5FC04460D467B685D
:102E2000D3F884100A464FF0000344F24021C0F268
:102E30000F0101FB03F04FF0000101FB02F140180C
:102E400044F24021C0F20F01A2FB0123C1180B463E
:102E5000121943EB0503104619464FF0000208F023
:102E6000FBFFCAE5AFF30080182D4454FB21094055
:102E7000F8C1631ADCA54C4080B582B000AF786021
:102E80007B680A4A1A607B681846FEF7E7F94FF03C
:102E9000000303F00103002B02D0786801F088FBE7
:102EA0007B68184607F10807BD4680BDE05701085A
:102EB00080B582B000AF78607868FFF7DDFF786892
:102EC00001F076FB7B68184607F10807BD4680BD18
:102ED00080B582B000AF78607B68184644F6C84180
:102EE000C0F601014FF064024FF4FA6308F03CFEB3
:102EF0007B6803F15003184640F6CC11C2F2000182
:102F000045F22C02C0F6010200F0E4FC7B68054AA1
:102F10001A607B68044A1A657B68184607F108073F
:102F2000BD4680BDA0570108BC57010880B586B0DA
:102F300000AF786039603B687B616A484FF47A7112
:102F4000FEF7FCF97B691B78A3F14103132B00F218
:102F5000BF8001A252F823F015300008D1300008DC
:102F6000D1300008D1300008D1300008D13000083D
:102F70003930000885300008D1300008D130000811
:102F8000D1300008D13000085D300008D130000891
:102F9000A9300008D1300008F12F0008D130000816
:102FA000A92F0008CD2F00084FF049033B737B6920
:102FB0005B683B6107F10C0340F6F010C2F20000C1
:102FC00019464FF0010200F0A1FC81E04FF05403DC
:102FD0003B737B695B683B6107F10C0340F6F010C3
:102FE000C2F2000019464FF0010200F08FFC6FE0C2
:102FF0004FF051033B734FF000033B6107F10C03AB
:1030000040F6F010C2F2000019464FF0010200F045
:103010007DFC5DE04FF041033B734FF07E533B611D
:1030200007F10C0340F6F010C2F2000019464FF011
:10303000010200F06BFC4BE04FF047033B734FF095
:1030400080433B6107F10C0340F6F010C2F2000030
:1030500019464FF0010200F059FC39E04FF04D03E2
:103060003B734FF00003C4F240033B6107F10C03D4
:1030700040F6F010C2F2000019464FF0010200F0D5
:1030800045FC25E04FF048033B734FF081433B6123
:1030900007F10C0340F6F010C2F2000019464FF0A1
:1030A000010200F033FC13E04FF04F033B734FF08D
:1030B0000003C4F2A0033B6107F10C0340F6F010DB
:1030C000C2F2000019464FF0010200F01FFC00BFE1
:1030D00004484FF4FA71FEF731F907F11807BD46BD
:1030E00080BD00BF5C090020A0F150001EE700BFBA
:1030F00080B582B000AF78600B484FF4FA71FEF7EC
:103100001DF901F04FFB06A3D3E90023121843EB8E
:103110000103104619464FF0000208F09DFEEBE750
:103120000065CD1D000000005C090020AFF30080A9
:1031300080B483B000AF786039603B6803F101036D
:103140001B78184607F10C07BD4680BC704700BFCE
:103150002DE9F04F89B000AFF860B9607A606B4636
:103160001E46BB6803F10203FB617B6803F1FF317C
:103170007961084602464FF000034FF0010A4FF014
:10318000000B12EB0A0243EB0B034FEA52704FEABB
:10319000C30940EA09094FEAC208084602464FF04F
:1031A00000034FF001084FF0000912EB080243EB57
:1031B00009034FEA52704FEAC30505434FEAC204C0
:1031C0000B4603F1010303F107034FEAD3034FEA70
:1031D000C303ADEB030D6B4603F100033B614FF0FE
:1031E0000003BB610DE0FB691A783969BB69CB1834
:1031F0001A70FB6903F10103FB61BB6903F1010371
:10320000BB61BA697B689A42ACBF00230123DBB281
:10321000002BE8D13B6918460AF076FF02460B46C0
:1032200010461946FDF74EFC0346B546184607F111
:103230002407BD46BDE8F08F80B584B000AF78604C
:103240003960386801F08EF90346FB73FB7B032B72
:1032500002D84FF0000327E03B681B78242B0CBFFB
:1032600000230123DAB2FB7B03F1FF333968CB186B
:103270001B78232B0CBF00230123DBB21340DBB2EE
:10328000002B02D04FF000030EE03B6803F1010376
:103290001B7818460AF07EFF0346002B02D14FF040
:1032A000000301E04FF00103184607F11007BD4687
:1032B00080BD00BF80B582B000AF786039607B68A8
:1032C000184644F6C841C0F601014FF064024FF4BD
:1032D000FA6308F049FC7B68054A1A607B683A6823
:1032E0001A657B68184607F10807BD4680BD00BF18
:1032F0008857010880B582B000AF78607B681B6D8D
:103300001B6803F134031B687A68126D10464FF492
:10331000E13198477B681B6D1B6803F138031B681C
:103320007A68126D10464FF002014FF00102984783
:1033300007F10807BD4680BD80B59AB000AF786040
:1033400007F10C034FF000021A6003F104034FF081
:1033500000021A6003F104034FF000021A6003F147
:1033600004034FF000021A6003F104034FF000025F
:103370001A6003F104034FF000021A6003F1040322
:103380004FF000021A6003F104034FF000021A60CC
:1033900003F104034FF000021A6003F104034FF03D
:1033A00000021A6003F104034FF000021A6003F1F7
:1033B00004034FF000021A6003F104034FF000020F
:1033C0001A8003F1020307F10C037B664FF0000340
:1033D0003B664FF0000387F85F304FF000024FF07C
:1033E0000003C7E912234FF000024FF00003C7E9C2
:1033F00014237B681B6D1B6803F118031B687A6834
:10340000126D104698470346002B52D031E001F070
:10341000C9F902460B46C7E912237B681B6D1B687E
:1034200003F148031B687A68126D104698470346FB
:10343000DAB27B6E1A707B6E03F101037B663B6E22
:1034400003F101033B664FF0010387F85F3001F0A1
:10345000A9F902460B4610461946D7E91223821AEB
:1034600061EB0303D7E91401121843EB0103C7E929
:1034700014237B681B6D1B6803F13C031B687A688F
:10348000126D10464FF0000198470346002B0BD0F9
:10349000D7E9142348A1D1E90001994208BF90421D
:1034A00002D34FF0010301E04FF00003002BAED137
:1034B00016E07B681B6D18464FF0FF326FF000433B
:1034C00000F05CFF01F06EF93DA3D3E90023121870
:1034D00043EB0103104619464FF0000208F0BCFC14
:1034E00097F85F30002B5CD0D7E9142332A1D1E9E3
:1034F0000001994208BF904210D27B681B6D1B6887
:1035000003F140031B687A68126D104645F24001D2
:10351000C0F601014FF01202984742E007F10C0398
:1035200040F62050C2F200001946FFF785FE034620
:10353000002B26D007F10C0340F62050C2F2000009
:103540001946FFF7F5FD034687F840303B6EA3F1BF
:10355000030307F10C0240F62050C2F200001146AE
:103560001A46FFF7F5FD03467B6407F1400340F67A
:10357000CC10C2F2000019464FF0010200F0DCF955
:103580000FE07B681B6D1B6803F140031B687A68C2
:10359000126D104645F25401C0F601014FF01402BD
:1035A00098474FF000024FF00003C7E914234FF093
:1035B000000387F85F30C3E6FFF1052A0100000031
:1035C00080B2E60E0000000080B584B000AFF86065
:1035D000B9607A60FB681846B9684FF008027B68EA
:1035E00001F064F9FB68044A1A60FB68184607F1A9
:1035F0001007BD4680BD00BFF058010880B584B0FB
:1036000000AFF860B9607A60FB681846B9684FF09F
:1036100008027B6801F04AF9FB68044A1A60FB68FB
:10362000184607F11007BD4680BD00BFE0580108ED
:1036300080B483B000AF78607B68044A1A607B680E
:10364000184607F10C07BD4680BC704700590108B9
:1036500080B582B000AF78607B681846FFF7E8FF5E
:103660007B68144A1A607B6803F104027B689A62E3
:103670007B6803F110027B68DA627B6803F11C024D
:103680007B681A637B684FF0000283F83420796806
:103690004FF000024FF00003C1E910237B68D3E92B
:1036A00010237968C1E90E237B68184607F10807E3
:1036B000BD4680BDC858010880B582B000AF7860B3
:1036C0007B681846FFF7B4FF7B68144A1A607B6872
:1036D00003F104027B681A617B6803F108027B68CE
:1036E0005A617B6803F10C027B689A617B684FF03A
:1036F00000021A7779684FF000024FF00003C1E929
:103700000A237B68D3E90A237968C1E908237B6827
:10371000184607F10807BD4680BD00BFB058010834
:1037200080B584B000AFF860B9607A60FB68184675
:10373000B9687A6800F046FFFB68064A1A60FB68C1
:103740004FF000021A63FB68184607F11007BD46E8
:1037500080BD00BF8858010880B485B000AF786094
:1037600039607B689B6A3A6807CA83E807007B6810
:10377000DB6AFB607B689A6A7B68DA627B68FA685E
:103780009A627B6893F83430DBB2002B09D07B68F7
:103790009B6AFB607B681A6B7B689A627B68FA683D
:1037A0001A637B68D3E90E014FF001024FF000036A
:1037B000121843EB01037968C1E90E2307F11407DE
:1037C000BD4680BC704700BF80B485B000AF786054
:1037D00039607B681B693A6812681A607B685B69AC
:1037E000FB607B681A697B685A617B68FA681A61BA
:1037F0007B681B7FDBB2002B09D07B681B69FB60F9
:103800007B689A697B681A617B68FA689A617B6851
:10381000D3E908014FF001024FF00003121843EB07
:1038200001037968C1E9082307F11407BD4680BC8C
:10383000704700BF80B485B000AF786039607B68A6
:103840004FF0010283F834207B68DB6AFB603B6841
:10385000FA6807CA83E807007B684FF0000283F824
:1038600034207B68D3E910014FF001024FF00003D0
:10387000121843EB01037968C1E9102307F114071B
:10388000BD4680BC704700BF80B485B000AF786093
:1038900039607B684FF001021A777B685B69FB60D7
:1038A000FB681A683B681A607B684FF000021A7761
:1038B0007B68D3E90A014FF001024FF000031218B0
:1038C00043EB01037968C1E90A2307F11407BD46F8
:1038D00080BC704780B584B000AFF860B9607A6092
:1038E000FB681846B9687A6800F06CFEFB68064A07
:1038F0001A60FB684FF000021A63FB68184607F174
:103900001007BD4680BD00BFE057010880B584B0F8
:1039100000AFF860B9601346FB71FA68FB79104696
:10392000B9681A464FF0000301F048F803461846FC
:1039300007F11007BD4680BD80B584B000AFF860C8
:10394000B9601346FB71FA68FB791046B9681A46EC
:103950004FF0000301F032F80346184607F1100754
:10396000BD4680BD80B582B000AF78607B680A4AF2
:103970001A607B68184608F071F94FF0000303F0F5
:103980000103002B02D0786800F012FE7B68184615
:1039900007F10807BD4680BD8857010880B582B091
:1039A00000AF78607868FFF7DDFF786800F000FE10
:1039B0007B68184607F10807BD4680BD80B582B018
:1039C00000AF78607B680F4A1A607B680E4A1A6500
:1039D0007B6803F150031846FFF74EFA7B681846E0
:1039E00008F03CF94FF0000303F00103002B02D074
:1039F000786800F0DDFD7B68184607F10807BD46D2
:103A000080BD00BFA0570108BC570108A0F15000BD
:103A1000FFF7D4BF80B582B000AF78607868FFF759
:103A2000CDFF786800F0C4FD7B68184607F10807F1
:103A3000BD4680BDA0F15000ECE700BF80B582B06C
:103A400000AF78607B680F4A1A607B680E4A1A657F
:103A50007B6803F150031846FEF72AFA7B68184684
:103A600008F0FCF84FF0000303F00103002B02D034
:103A7000786800F09DFD7B68184607F10807BD4691
:103A800080BD00BF0858010824580108A0F150006B
:103A9000FFF7D4BF80B582B000AF78607868FFF7D9
:103AA000CDFF786800F084FD7B68184607F10807B1
:103AB000BD4680BDA0F15000ECE700BF80B582B0EC
:103AC00000AF78607B680F4A1A607B680E4A1A65FF
:103AD0007B6803F150031846FEF7EAF97B68184645
:103AE00008F0BCF84FF0000303F00103002B02D0F4
:103AF000786800F05DFD7B68184607F10807BD4651
:103B000080BD00BF4858010864580108A0F150006A
:103B1000FFF7D4BF80B582B000AF78607868FFF758
:103B2000CDFF786800F044FD7B68184607F1080770
:103B3000BD4680BDA0F15000ECE700BF80B582B06B
:103B400000AF78607B680A4A1A607B681846FDF708
:103B5000B9FB4FF0000303F00103002B02D078689B
:103B600000F026FD7B68184607F10807BD4680BDBA
:103B7000B058010880B582B000AF78607868FFF770
:103B8000DDFF786800F014FD7B68184607F1080730
:103B9000BD4680BD80B582B000AF78607B680A4AC0
:103BA0001A607B681846FDF78DFB4FF0000303F0A9
:103BB0000103002B02D0786800F0FAFC7B681846FD
:103BC00007F10807BD4680BDC858010880B582B01E
:103BD00000AF78607868FFF7DDFF786800F0E8FCF8
:103BE0007B68184607F10807BD4680BD90B583B0D5
:103BF00000AF786039607B68012B40F015813A682E
:103C00004FF6FF739A4240F00F8140F60810C2F25F
:103C100000004FF0000101F08FFF40F62413C2F2C4
:103C200000031C4620464FF03C0101F085FF04F1E3
:103C30001C0420464FF03D0101F07EFF04F11C04FE
:103C400020464FF03E0101F077FF04F11C031846B7
:103C50004FF03F0101F070FF40F69410C2F20000F7
:103C60004FF0020103F0F2FC40F6B010C2F2000087
:103C70004FF0020102F05EFB40F6CC10C2F20000F1
:103C80004FF0FF3145F26C02C0F60102FFF79CFCD9
:103C900040F6CC10C2F2000043F6FD71C0F6000100
:103CA00040F6B462C2F200020AF028FA40F6F010C0
:103CB000C2F200004FF0FF3145F28002C0F601026F
:103CC000FFF79CFC40F6F010C2F2000043F6997139
:103CD000C0F6000140F6B462C2F200020AF00EFA29
:103CE00040F61820C2F20000FFF7B2FC40F61820A0
:103CF000C2F2000043F69531C0F6000140F6B4620E
:103D0000C2F200020AF0FAF940F66020C2F20000A6
:103D1000FFF79EFC40F66020C2F2000043F69531AA
:103D2000C0F6000140F6B462C2F200020AF0E6F901
:103D300040F6A820C2F20000FFF78AFC40F6A82057
:103D4000C2F2000043F69531C0F6000140F6B462BD
:103D5000C2F200020AF0D2F940F6F020C2F20000EE
:103D6000FFF7AAFC40F6F020C2F2000043F63D3116
:103D7000C0F6000140F6B462C2F200020AF0BEF9D9
:103D800040F62030C2F20000FEF7BEF840F62030C8
:103D9000C2F2000043F6BD21C0F6000140F6B46255
:103DA000C2F200020AF0AAF940F6E030C2F20000C6
:103DB000FEF7AAFD40F6E030C2F2000043F63D21D6
:103DC000C0F6000140F6B462C2F200020AF096F9B1
:103DD00040F69840C2F20000FFF77AF840F69840AB
:103DE000C2F2000043F6BD11C0F6000140F6B46215
:103DF000C2F200020AF082F940F62850C2F2000036
:103E000040F69411C2F20001FFF754FA40F6285030
:103E1000C2F2000043F66511C0F6000140F6B4623C
:103E2000C2F200020AF06AF907F10C07BD4690BD24
:103E300080B584B000AFF860B9607A603B60FB6821
:103E40001B6803F118031B68F8683968BA6998475A
:103E50004FF00103184607F11007BD4680BD00BFB3
:103E600080B584B000AFF860B9607A60FB681B6809
:103E700003F114031B68F868B968984707F1100745
:103E8000BD4680BD80B582B000AF786039607B6888
:103E90001B6B002B03D07B681B6B3868984707F1BE
:103EA0000807BD4680BD00BF80B584B000AFF86094
:103EB000B9607A603B60FB681B6803F118031B68FC
:103EC000F8683968BA6998474FF00103184607F156
:103ED0001007BD4680BD00BF80B584B000AFF8605C
:103EE000B9607A60FB681B6803F114031B68F8680B
:103EF000B968984707F11007BD4680BD80B582B00C
:103F000000AF786039607B681B6B002B03D07B6847
:103F10001B6B3868984707F10807BD4680BD00BF96
:103F200080B584B000AFF860B9607A603B607B68B0
:103F3000042B08D945F29000C0F6010000F034F9D6
:103F40004FF0000305E0F8683968FFF73DFC4FF0DB
:103F50000103184607F11007BD4680BD80B584B047
:103F600000AFF860B9607A603B607B680C2B08D9C1
:103F700045F29000C0F6010000F016F94FF0000382
:103F800005E0F8683968FFF7E7FB4FF001031846D2
:103F900007F11007BD4680BD80B582B000AF7860E4
:103FA0007B680D4A1A6045F2A400C0F6010000F0DB
:103FB000FBF87B681846FDF71DF94FF0000303F08E
:103FC0000103002B02D0786800F0F2FA7B681846F3
:103FD00007F10807BD4680BDE058010880B582B0F2
:103FE00000AF78607868FFF7D7FF786800F0E0FAF4
:103FF0007B68184607F10807BD4680BD80B582B0D2
:1040000000AF78607B680D4A1A6045F2A400C0F6E4
:10401000010000F0C9F87B681846FDF7EBF84FF097
:10402000000303F00103002B02D0786800F0C0FA0F
:104030007B68184607F10807BD4680BDF0580108A7
:1040400080B582B000AF78607868FFF7D7FF7868F6
:1040500000F0AEFA7B68184607F10807BD4680BD40
:1040600080B500AF4FF001004FF6FF71FFF7BEFDC6
:1040700080BD00BF80B582B000AF78607B68084A21
:104080001A604FF0000303F00103002B02D07868A0
:1040900000F08EFA7B68184607F10807BD4680BD20
:1040A0002859010880B582B000AF78607868FFF7C2
:1040B000E1FF786800F07CFA7B68184607F1080792
:1040C000BD4680BD80B582B000AF78600B46FB7006
:1040D00097F90330184607F09BF807F10807BD462B
:1040E00080BD00BF80B483B000AF78607B68044AB5
:1040F0001A607B68184607F10C07BD4680BC704704
:10410000285901080FB480B582B000AF40F208030F
:10411000C2F200031B68002B3ED03B461846FFF757
:10412000E1FF07F114037B6040F68453C2F2000301
:104130001B68002B0BD040F68453C2F200031B68AF
:1041400045F2BC00C0F60100194601F085F907F000
:10415000DFFB034683F00103DBB2002B05D03B46B7
:104160001846396900F0B6FE10E040F68850C2F2F9
:10417000000007F01FFC3B461846396900F0AAFE14
:1041800040F68850C2F2000007F084FC07F08EF879
:104190003B461846FFF76EFF07F10807BD46BDE82E
:1041A000804004B0704700BF80B582B000AF786037
:1041B00040F20403C2F200037A681A6045F2D000AC
:1041C000C0F601007968FFF79DFF40F68453C2F204
:1041D00000031B6803F1010240F68453C2F200039E
:1041E0001A6007F10807BD4680BD00BF80B582B0E8
:1041F00000AF786039607B68012B0AD13A684FF6CE
:10420000FF739A4205D140F68850C2F2000007F0D1
:10421000B5FB07F10807BD4680BD00BF80B500AF04
:104220004FF001004FF6FF71FFF7E0FF80BD00BFC8
:104230000FB480B400AF4FF000031846BD4680BCF9
:1042400004B0704780B483B000AF786007F10C070A
:10425000BD4680BC704700BF0FB480B400AF4FF0C4
:1042600000031846BD4680BC04B070470FB480B44C
:1042700000AF4FF000031846BD4680BC04B0704745
:1042800080B483B000AF78604FF00003184607F1A8
:104290000C07BD4680BC704780B483B000AF786027
:1042A0004FF00003184607F10C07BD4680BC70476D
:1042B0000FB480B400AF4FF000031846BD4680BC79
:1042C00004B070470FB480B400AF4FF0000318463D
:1042D000BD4680BC04B070470FB480B400AF4FF04F
:1042E00000031846BD4680BC04B0704780B483B05C
:1042F00000AF78607B680C4A1A607B684FF0000260
:104300001A617B684FF000025A607B684FF0000230
:104310009A607B684FF00002DA607B68184607F10C
:104320000C07BD4680BC70474059010880B584B079
:1043300000AFF860C7E9002306F060FAFB681B686D
:1043400003F110031B68F86898470346002B02D05E
:1043500006F05AFA0EE007F055FD0246FB689A6037
:10436000FB689968D7E90023C1E90A2306F04CFAF3
:1043700007F0C0FC07F11007BD4680BD80B584B0D2
:1043800000AFF860C7E9002306F038FAFB681B6845
:1043900003F118031B68F86898470346002B02D006
:1043A00006F032FA0EE007F02DFD0246FB68DA60F7
:1043B000FB68D968D7E90023C1E90A2306F024FA8B
:1043C00007F098FC07F11007BD4680BD80B582B0AC
:1043D00000AF78607B689B68002B04D07B689B688B
:1043E000184607F01BFD7B684FF000029A607B685F
:1043F0001B69002B07D07B681B691B681B687A68E8
:1044000012691046984707F10807BD4680BD00BFF6
:1044100080B582B000AF78607B685B68002B04D009
:104420007B685B68184607F0F9FC7B684FF0000278
:104430005A607B681B69002B09D07B681B691B686D
:1044400003F104031B687A6812691046984707F164
:104450000807BD4680BD00BF80B582B000AF786060
:104460007B68DB68002B04D07B68DB68184607F0AC
:10447000D5FC7B684FF00002DA607B681B69002B7B
:1044800009D07B681B691B6803F108031B687A6805
:1044900012691046984707F10807BD4680BD00BF66
:1044A00080B584B000AFF860B9607A603B60FB68AB
:1044B0003A68DA60FB687A685A6040F69853C2F24C
:1044C00000031B68FA68936003F1010240F69853F9
:1044D000C2F200031A60F868B96800F007F8FB68D8
:1044E000184607F11007BD4680BD00BF80B582B0F9
:1044F00000AF786039603B681A687B681A603B6877
:104500007A681A6042F20003C2F200031B68002BB3
:104510000CBF00230123DBB2002B0ED045F2FC00C0
:10452000C0F60100FFF740FE7B685B6845F2301083
:10453000C0F601001946FFF7E5FD07F10807BD4683
:1045400080BD00BF80B582B000AF786045F25410E6
:10455000C0F60100FFF728FE7B68184607F1080740
:10456000BD4680BD80B485B000AF78604FF00003D9
:10457000FB607B68002B0AD14FF0000312E0FB6860
:1045800003F10103FB607B6803F101037B607B683F
:104590001B785BB2002B0CBF00230123DBB2002B86
:1045A000EDD1FB68184607F11407BD4680BC704783
:1045B00080B483B000AF786007F10C07BD4680BCC3
:1045C000704700BF80B584B000AFF860B9607A6012
:1045D000FB6803F10403184642F2C801C2F200016D
:1045E00045F27C12C0F601024FF00003FFF758FFBE
:1045F000FB68104A1A60FB68BA685A61FB6803F1ED
:104600002003184607F0BAF9FB684FF000021A774A
:10461000FB684FF001025A77FB687A689A60FB6882
:104620004FF000029A61FB68184607F11007BD467B
:1046300080BD00BF8059010880B485B000AFF8602C
:10464000B9607A603B604CF61553C0F25B73184654
:1046500007F11407BD4680BC704700BF90B587B016
:1046600002AFF860B9607A603B60FB685B7F83F003
:104670000103DBB2002B02D04FF0000349E0FB68DE
:1046800003F12003184607F095F9FB689B69002B9E
:1046900010D0FB689B691B6803F108031C68FB686A
:1046A0009A697B68396A00911046B9681A463B6876
:1046B000A0471FE0FB681B681C683B6A5B690093AE
:1046C000F868B9687A683B68A04702464CF615530B
:1046D000C0F25B739A420CBF00230123DBB2002BB4
:1046E00008D045F28810C0F60100FFF75DFD4FF0DD
:1046F00001030EE0FB6803F12003184607F0CAF936
:10470000FB689B69002B02D04FF0010301E04FF0E2
:104710000003184607F11407BD4690BD90B58DB053
:1047200002AFF860B9607A603B60FB689B69002B60
:1047300010D0FB689B691B6803F108031C68FB68C9
:104740009A693B6807F1100100911046B9681A4652
:104750007B68A04707F12C07BD4690BD80B483B0AD
:1047600000AF786079684FF000024FF00003C1E9B4
:10477000002379684FF000024FF00003C1E90223E3
:1047800079684FF000024FF00003C1E904237B6811
:104790004FF011029A617B68184607F10C07BD467D
:1047A00080BC704780B500AF06F02EFC02460B4679
:1047B0001046194680BD00BF80B584B000AFC7E980
:1047C0000201C7E90023D7E90223D7E90601904295
:1047D00071EB030C02DAD7E9022332E0D7E90023B8
:1047E00052EA030104D14FF0FF326FF0004328E09A
:1047F000D7E90601D7E90223821A61EB03031046C9
:104800001946D7E90023FCF7ADF902460B461046DE
:1048100019464FF001024FF00003121843EB010359
:10482000396803FB01F0796802FB01F1411838682F
:10483000A0FB0223C9180B46D7E90201121843EB6B
:1048400001031046194607F11007BD4680BD00BFA1
:1048500080B582B000AF786039607B68012B0AD1E7
:104860003A684FF6FF739A4205D140F6A050C2F263
:104870000000FFF773FF07F10807BD4680BD00BFCA
:1048800080B500AF4FF001004FF6FF71FFF7E0FF7A
:1048900080BD00BF80B483B000AF78607B681B68C8
:1048A000184607F10C07BD4680BC704780B586B03E
:1048B00000AFF860B9607A603B60FB6803F1040305
:1048C000184642F2D801C2F200013A684FF00003E4
:1048D000FFF7E6FDFB68384A1A60FB684FF00002FC
:1048E0005A61FB68BA68DA61FB687A681A62FB6829
:1048F0004FF000029A61FB68DB69B3F1FF3F12D110
:10490000386807F0E7FE03461A46FB68DA61FB6881
:10491000DA6940F2E7339A4205DCFB68DB6903F5AC
:104920007A72FB68DA6142F2D803C2F200031B68B4
:10493000002B07D042F2D803C2F200031B68A3F198
:10494000040301E04FF000037B6127E07B69DA6933
:10495000BB689A4213D17A69FB689A420FD045F23C
:10496000E810C0F60100FFF71FFC7B699B6845F269
:10497000FC10C0F60100B9683A68FFF7C3FB7B6919
:1049800003F104031846FFF785FF0346002B02D00E
:10499000A3F1040301E04FF000037B617B69002B6E
:1049A0000CBF00230123DBB2002BCFD1FB681846DC
:1049B00007F11807BD4680BD1859010880B586B0BB
:1049C00002AFF860B9603B601346FB71FB681B6A7D
:1049D0001A46FB7939680091F868B96800F006F862
:1049E0000346184607F11007BD4680BD90B591B04B
:1049F00002AFF860B9607A60FB704FF000037B6330
:104A0000BB6C002B13D14FF000037B62FFF7CAFE93
:104A100002460B46C7E9062307F0AAFE03463B61A0
:104A200007F0F0F903463B6207F11003BB64FB6833
:104A30009B69002B0FD0FB689B691B681C68FB6897
:104A40009969FB68DA697B68B86C00900846114682
:104A50001A46BB68A047FB685B69002B04D0FB6863
:104A60005B69A3F1040301E04FF000033B6325E021
:104A70003B6B5B7F002B12D03B6B1B6803F1040385
:104A80001C68FB68DA697B68B96C0091386B114669
:104A90001A46BB68A04703467A6BD3187B633B6B0F
:104AA00003F104031846FFF7F5FE0346002B02D07E
:104AB000A3F1040301E04FF000033B633B6B002BC9
:104AC0000CBF00230123DBB2002BD1D1FB7883F094
:104AD0000103DBB2002B01D07B6B3DE040F6DC53E1
:104AE000C2F200035B69002B07D040F6DC53C2F230
:104AF00000035B69A3F1040301E04FF00003FB62D4
:104B000021E0FB6A1B6803F104031C68FB68DA6997
:104B10007B68B96C0091F86A11461A46BB68A047D9
:104B200003467A6BD3187B63FB6A03F104031846D0
:104B3000FFF7B0FE0346002B02D0A3F1040301E00F
:104B40004FF00003FB62FB6A002B0CBF0023012324
:104B5000DBB2002BD5D17B6B184607F13C07BD4675
:104B600090BD00BF80B582B000AF78607B680D4A11
:104B70001A6045F27420C0F60100FFF715FB7B6850
:104B80001846FCF737FB4FF0000303F00103002B3E
:104B900002D07868FFF70CFD7B68184607F108071C
:104BA000BD4680BDC059010880B582B000AF7860B5
:104BB0007868FFF7D7FF7868FFF7FAFC7B6818463C
:104BC00007F10807BD4680BD80B584B000AFF8602E
:104BD000B9607A60FB681846B9684FF00C027B68D0
:104BE000FFF764FEFB68044A1A60FB68184607F189
:104BF0001007BD4680BD00BFC059010880B584B014
:104C000000AFF860B9607A60FB681846B96840F296
:104C10002E527B68FFF74AFEFB68044A1A60FB6865
:104C2000184607F11007BD4680BD00BFB059010806
:104C300080B584B000AFF860B9607A60FB68184650
:104C4000B9684FF004027B68FFF730FEFB68044A46
:104C50001A60FB68184607F11007BD4680BD00BF0B
:104C6000A059010880B582B000AF786039607B68D8
:104C7000012B40F0BC803A684FF6FF739A4240F037
:104C8000B68040F6C050C2F2000045F28421C0F662
:104C900001014FF00A0207F0FBFB40F6C050C2F2E0
:104CA00000004CF2DD41C0F6000140F6B462C2F2F1
:104CB000000209F023FA40F6DC50C2F200004FF087
:104CC000000145F29822C0F60102FFF77DFF40F691
:104CD000DC50C2F2000044F66531C0F6000140F637
:104CE000B462C2F2000209F009FA40F60060C2F2B2
:104CF00000004FF0FF3145F2A822C0F60102FFF795
:104D00007DFF40F60060C2F2000044F65D61C0F62F
:104D1000000140F6B462C2F2000209F0EFF940F679
:104D20002460C2F200004FF0FF3145F2B422C0F619
:104D30000102FFF77DFF40F62460C2F2000044F656
:104D4000F951C0F6000140F6B462C2F2000209F067
:104D5000D5F940F64860C2F200004FF0FF3145F24D
:104D6000C422C0F60102FFF763FF40F64860C2F2BA
:104D7000000044F6F951C0F6000140F6B462C2F2F8
:104D8000000209F0BBF940F66C60C2F200004FF07F
:104D9000FF3145F2D422C0F60102FFF749FF40F689
:104DA0006C60C2F2000044F6F951C0F6000140F612
:104DB000B462C2F2000209F0A1F940F69060C2F2BA
:104DC00000004FF0FF3145F2E822C0F60102FFF784
:104DD000FBFE40F69060C2F2000044F66531C0F67A
:104DE000000140F6B462C2F2000209F087F907F14F
:104DF0000807BD4680BD00BF80B582B000AF7860B7
:104E00007B680D4A1A6045F27420C0F60100FFF776
:104E1000CBF97B681846FCF7EDF94FF0000303F07F
:104E20000103002B02D07868FFF7C2FB7B681846AD
:104E300007F10807BD4680BDA059010880B582B0C2
:104E400000AF78607868FFF7D7FF7868FFF7B0FBAE
:104E50007B68184607F10807BD4680BD80B582B063
:104E600000AF78607B680D4A1A6045F27420C0F686
:104E70000100FFF799F97B681846FCF7BBF94FF082
:104E8000000303F00103002B02D07868FFF790FBCA
:104E90007B68184607F10807BD4680BDB059010878
:104EA00080B582B000AF78607868FFF7D7FF786888
:104EB000FFF77EFB7B68184607F10807BD4680BDFB
:104EC00080B500AF4FF001004FF6FF71FFF7CAFE4B
:104ED00080BD00BF80B594B000AF78603960A4E2B7
:104EE0004FF0000387F84E304FF0000387F84D3045
:104EF0004FF0000387F84C304FF0000387F84B3039
:104F000097F84F30252B0BD07B681B6803F1080303
:104F10001B6897F84F2052B278681146984784E290
:104F20003B681B7887F84F303B6803F101033B6017
:104F30004FF0000387F843304FF0200387F84230EA
:104F40004FF0030387F8413097F84F30302B0BD1E7
:104F500097F84F3087F842303B681B7887F84F301E
:104F60003B6803F101033B6097F84F302F2B11D9B9
:104F700097F84F30392B0DD897F84F30A3F1300305
:104F800087F843303B681B7887F84F303B6803F164
:104F900001033B6097F84F302E2B15D13B681B78EF
:104FA00087F84F303B6803F101033B6097F84F30BF
:104FB000A3F1300387F841303B681B7887F84F3006
:104FC0003B6803F101033B6097F84F306C2B0BD12A
:104FD0004FF0010387F84D303B681B7887F84F305E
:104FE0003B6803F101033B6097F84F306C2B0BD10A
:104FF0004FF0010387F84C303B681B7887F84F303F
:105000003B6803F101033B6097F84F30A3F1620363
:10501000162B3AD801A151F823F000BF2F510008F8
:1050200079500008135100088B5000080B510008FC
:105030008B5000088B5000088B5000088B500008E4
:105040008B5000088B5000088B5000088B500008D4
:10505000EF5000088B5000088B5000088B50000860
:10506000A35000088B5000081B5100088B5000080B
:105070008B500008255100087B685B6803F1040130
:105080007A6851601B6887F84F307B681B6803F1B2
:1050900008031B6897F84F2052B27868114698476A
:1050A000C3E17B685B6803F104017A6851601B68A7
:1050B0007B640AE07B681B6803F108031B6897F8B0
:1050C0004F2052B27868114698477B6C1B7887F85E
:1050D0004F3097F84F30002B0CBF00230123DBB279
:1050E0007A6C02F101027A64002BE3D19DE14FF06A
:1050F0000803A7F848307B681B6803F108031B68A6
:1051000078684FF03001984716E04FF0010387F8B8
:105110004B304FF0010387F84E304FF00A03A7F8E9
:10512000483009E04FF01003A7F8483004E04FF092
:105130000203A7F8483000BF4FF000024FF0000311
:10514000C7E90C234FF000024FF00003C7E90A2320
:1051500097F84B30002B16D07B685B6803F1070390
:1051600023F0070303F108017A685160D3E90023B3
:10517000C7E90A23D7E90A01FBF726FD02460B46D9
:10518000C7E90C232FE097F84C30002B0ED07B683A
:105190005B6803F1070323F0070303F108017A6852
:1051A0005160D3E90023C7E90C231CE097F84D3088
:1051B000002B0CD07B685B6803F104017A685160B6
:1051C00019680A464FEAE273C7E90C230BE07B68D3
:1051D0005B6803F104017A68516019680A464FEA76
:1051E000E273C7E90C2397F84E30002B30D0D7E993
:1051F0000C23002A73F100010ADBD7E90A014FF002
:1052000000024FF00003FBF7EDFB0346002B1FD01D
:10521000D7E90C23524263EB4303C7E90C23BB6A73
:10522000BB62FB6A83F00043FB627B681B6803F18F
:1052300008031B6878684FF02D01984797F84330B2
:10524000002B05D097F8433003F1FF3387F8433044
:1052500097F84C30002B04D0D7E90C23C7E90E2374
:1052600010E097F84D30002B06D0396B0A464FF00E
:105270000003C7E90E2305E0396B0A464FF000032F
:10528000C7E90E2307F10C0303F11A037B647B6C5F
:1052900003F1FF337B647B6C4FF000021A70B7F8A8
:1052A00048204FF00003D7E90E01FBF777FCD3B29B
:1052B00003F13003DBB287F8273097F92730392B19
:1052C00006DD97F8273003F10703DBB287F82730B4
:1052D0007B6C03F1FF337B6497F827207B6C1A709B
:1052E000B7F848204FF00003D7E90E01FBF756FC52
:1052F00002460B46C7E90E2397F84330002B05D032
:1053000097F8433003F1FF3387F84330BA6BFB6BF8
:105310001343002B0CBF00230123DBB2002BBED1B3
:1053200007E07B6C03F1FF337B647B6C97F84220D2
:105330001A7097F84330002B0CBF00230123DBB217
:1053400097F8432002F1FF3287F84320002BE8D181
:105350000AE07B681B6803F108031B6897F84F207D
:1053600052B27868114698477B6C1B7887F84F30AB
:1053700097F84F30002B0CBF00230123DBB27A6C6F
:1053800002F101027A64002BE3D197F84B30002B35
:105390004BD07B681B6803F108031B6878684FF0EB
:1053A0002E01984732E0D7E90C01FBF77BF8024663
:1053B0000B46D7E90A01FAF7EFFE02460B46C7E9AA
:1053C0000A23D7E90A014FF000024FF00003C4F2AC
:1053D0002403FBF795F802460B46C7E90A23D7E9F1
:1053E0000A01FBF7F1FB02460B46C7E90C237B6879
:1053F0001B6803F108031B6897F8302002F13002A4
:10540000D2B2D2B252B278681146984797F841307A
:10541000002B0CBF00230123DBB297F8412002F1DF
:10542000FF3287F84120002BBDD13B681B7887F8FD
:105430004F3097F84F30002B0CBF00230123DBB215
:105440003A6802F101023A60002B7FF449AD07F19E
:105450005007BD4680BD00BF0FB480B582B000AF1D
:1054600040F20803C2F200031B68002B0FD03B463A
:105470001846FEF737FE07F114037B603B461846DB
:105480003969FFF727FD3B461846FEF7F3FD07F1A4
:105490000807BD46BDE8804004B0704780B582B0C3
:1054A00000AF45F66863C0F601037B600AE07B68E5
:1054B0001B6898473B6803F101033B607B6803F17D
:1054C00004037B607A6845F68C63C0F601039A4258
:1054D000EDD13B6803F101033B603B6803F1FF330F
:1054E0003B6007F10807BD4680BD00BF80B485B0B2
:1054F00000AFF860B9607A604FF00003184607F11A
:105500001407BD4680BC704780B400AFFEE700BF03
:10551000002100F004B8124B5B584350043111488D
:10552000114B42189A42FFF4F6AF104A00F003B84C
:10553000002342F8043B0E4B9A42FFF4F9AF0D4AA8
:1055400000F003B8002342F8043B0B4B9A42FFF4EF
:10555000F9AF05F0B1FEFFF7A1FF07F06DFA704754
:105560008C5E0108000000200809002008090020C6
:1055700020C20020000000100000001005F0E6FD31
:10558000FFF7FCBF80B483B000AF786039603B6840
:10559000184607F10C07BD4680BC704780B483B045
:1055A00000AF78604FF00103184607F10C07BD46C5
:1055B00080BC704780B483B000AF78604FF00103C7
:1055C000184607F10C07BD4680BC704780B483B015
:1055D00000AF0346FB714FF46143CEF2000397F92D
:1055E00007204FEA5212F97901F01F014FF0010034
:1055F00000FA01F143F8221007F10C07BD4680BC08
:10560000704700BF80B483B000AF0346FB714FF416
:105610006143CEF2000397F907204FEA5212F9795D
:1056200001F01F014FF0010000FA01F102F16002E8
:1056300043F8221007F10C07BD4680BC704700BF3D
:1056400080B500AF40F6F863C2F200031B7883F028
:105650000103DBB2002B28D040F6F863C2F200034E
:105660004FF001021A704FF480404FF0010104F036
:1056700039FC4FF00600FFF7A9FF4FF00700FFF7D6
:10568000A5FF4FF00800FFF7A1FF4FF00900FFF75B
:105690009DFF4FF00A00FFF799FF4FF01700FFF74B
:1056A00095FF4FF02800FFF791FF80BD80B582B0D5
:1056B00000AF786079807A703B707B687A881A8056
:1056C0007B687A781A727B683A785A72786800F048
:1056D00029F8B7F90230184600F036F902467B681F
:1056E0005A617B6803F10C03184603F097FF7B684F
:1056F0005B891A467B68DA607B684FF002025A7455
:105700007B684FF000021A747B684FF000021A7633
:105710007B684FF000025A767B68184607F108074D
:10572000BD4680BD80B483B000AF78607B681B7AD3
:105730001A467B681B889BB203F00F03D318102B0B
:105740000CDD7B681B889BB203F00F034FF6FF72E2
:1057500002FA03F39AB27B685A8117E07B681B7ADE
:10576000C3F110034FF6FF7242FA03F39AB27B685B
:105770005A817B685B891A467B681B889BB203F061
:105780000F0302FA03F39AB27B685A8107F10C0700
:10579000BD4680BC704700BF80B582B000AF786066
:1057A0007B684FF001025A767B685B681B6803F1E7
:1057B00030031B687A685268104698474FF470525D
:1057C000C4F201027B681B8819B24FF00F03C8F2C4
:1057D00000030B40002B05DA03F1FF3363F00F03E6
:1057E00003F101039BB21BB24FF0010101FA03F375
:1057F000536107F10807BD4680BD00BF80B485B086
:1058000000AF78604FF00003FB6003E0FB6803F13A
:105810000103FB607B684FEA53037B607B68002BCE
:105820000CBF00230123DBB2002BEFD1FB6818462D
:1058300007F11407BD4680BC704700BF80B483B039
:1058400000AF78607B684FF4A052C4F2020293422A
:1058500060D04FF4A052C4F20202934225D84FF414
:105860000062C4F2020293424BD04FF40062C4F2D1
:10587000020293420CD84FF00002C4F2020293429B
:1058800039D04FF48062C4F20202934236D053E022
:105890004FF44062C4F20202934235D04FF480527A
:1058A000C4F20202934232D046E04FF40052C4F2F6
:1058B0000202934237D04FF40052C4F202029342E4
:1058C0000CD84FF4C052C4F20202934225D04FF4D8
:1058D000E052C4F20202934222D02DE04FF4105263
:1058E000C4F20202934221D04FF42052C4F20202C9
:1058F00093421ED020E04FF001031FE04FF002035F
:105900001CE04FF0040319E04FF0080316E04FF0DD
:10591000100313E04FF0200310E04FF040030DE0C0
:105920004FF080030AE04FF4807307E04FF40073F8
:1059300004E04FF4806301E04FF00003184607F1E4
:105940000C07BD4680BC704780B483B000AF0346EF
:10595000FB80B7F906300F2B04DC4FF00003C4F2D4
:10596000020349E0B7F906301F2B04DC4FF48063D3
:10597000C4F2020340E0B7F906302F2B04DC4FF4E9
:105980000063C4F2020337E0B7F906303F2B04DCB2
:105990004FF44063C4F202032EE0B7F906304F2BF8
:1059A00004DC4FF48053C4F2020325E0B7F906305B
:1059B0005F2B04DC4FF4A053C4F202031CE0B7F9E0
:1059C00006306F2B04DC4FF4C053C4F2020313E023
:1059D000B7F906307F2B04DC4FF4E053C4F2020326
:1059E0000AE0B7F906308B2B04DC4FF40053C4F205
:1059F000020301E04FF00003184607F10C07BD4613
:105A000080BC704780B483B000AF0346FB80FB8846
:105A100003F00F034FF0010202FA03F39BB21846A2
:105A200007F10C07BD4680BC704700BF80B586B04B
:105A300000AF02460B46FA807B71B7F90630002BA7
:105A400003DBB7F906308B2B02DD4FF0FF333CE070
:105A5000B7F906301846FFF777FF7861B7F90630D7
:105A60001846FFF7CFFF03467B827869FFF7E6FE13
:105A7000034618464FF0010104F0E0F97869FFF79A
:105A8000DDFE034618464FF0000104F055FA7B8A0C
:105A90001846FFF7B3FE03469AB27B797869114640
:105AA0001A4603F01FFE07F10803184603F0B6FD7F
:105AB0004FF002033B737B8ABB6007F108037869F0
:105AC000194603F009FD4FF00003184607F11807C7
:105AD000BD4680BD80B584B000AF0346FB80B7F9FA
